{
	"StakeMaster/stake.sol": {
		"StakeMaster": {
			"abi": [
				{
					"inputs": [
						{
							"internalType": "address",
							"name": "",
							"type": "address"
						}
					],
					"name": "balances",
					"outputs": [
						{
							"internalType": "uint256",
							"name": "",
							"type": "uint256"
						}
					],
					"stateMutability": "view",
					"type": "function"
				},
				{
					"inputs": [],
					"name": "deposit",
					"outputs": [],
					"stateMutability": "payable",
					"type": "function"
				},
				{
					"inputs": [
						{
							"internalType": "address",
							"name": "wallet",
							"type": "address"
						}
					],
					"name": "getBlockNumber",
					"outputs": [
						{
							"internalType": "uint256[]",
							"name": "",
							"type": "uint256[]"
						}
					],
					"stateMutability": "view",
					"type": "function"
				},
				{
					"inputs": [
						{
							"internalType": "address",
							"name": "_staker",
							"type": "address"
						}
					],
					"name": "getWithdrawBlockNumbersDefu",
					"outputs": [],
					"stateMutability": "view",
					"type": "function"
				},
				{
					"inputs": [],
					"name": "harvestBary",
					"outputs": [],
					"stateMutability": "nonpayable",
					"type": "function"
				},
				{
					"inputs": [],
					"name": "harvestDefu",
					"outputs": [],
					"stateMutability": "nonpayable",
					"type": "function"
				},
				{
					"inputs": [
						{
							"internalType": "address",
							"name": "",
							"type": "address"
						}
					],
					"name": "pendingUnstake",
					"outputs": [
						{
							"internalType": "uint256",
							"name": "",
							"type": "uint256"
						}
					],
					"stateMutability": "view",
					"type": "function"
				},
				{
					"inputs": [
						{
							"internalType": "address",
							"name": "",
							"type": "address"
						},
						{
							"internalType": "uint256",
							"name": "",
							"type": "uint256"
						}
					],
					"name": "pendingUnstakeBlock",
					"outputs": [
						{
							"internalType": "uint256",
							"name": "",
							"type": "uint256"
						}
					],
					"stateMutability": "view",
					"type": "function"
				},
				{
					"inputs": [
						{
							"internalType": "address[]",
							"name": "listAddress",
							"type": "address[]"
						}
					],
					"name": "reStake",
					"outputs": [],
					"stateMutability": "nonpayable",
					"type": "function"
				},
				{
					"inputs": [
						{
							"internalType": "address",
							"name": "",
							"type": "address"
						}
					],
					"name": "rewards",
					"outputs": [
						{
							"internalType": "uint256",
							"name": "",
							"type": "uint256"
						}
					],
					"stateMutability": "view",
					"type": "function"
				},
				{
					"inputs": [],
					"name": "totalBalance",
					"outputs": [
						{
							"internalType": "uint256",
							"name": "",
							"type": "uint256"
						}
					],
					"stateMutability": "view",
					"type": "function"
				},
				{
					"inputs": [
						{
							"internalType": "uint256",
							"name": "_amount",
							"type": "uint256"
						}
					],
					"name": "unstakeBary",
					"outputs": [],
					"stateMutability": "nonpayable",
					"type": "function"
				},
				{
					"inputs": [
						{
							"internalType": "uint256",
							"name": "_amount",
							"type": "uint256"
						}
					],
					"name": "unstakeDefu",
					"outputs": [],
					"stateMutability": "nonpayable",
					"type": "function"
				},
				{
					"inputs": [],
					"name": "withdraw",
					"outputs": [],
					"stateMutability": "nonpayable",
					"type": "function"
				},
				{
					"inputs": [
						{
							"internalType": "uint256",
							"name": "blockNumber",
							"type": "uint256"
						}
					],
					"name": "withdrawPending",
					"outputs": [],
					"stateMutability": "nonpayable",
					"type": "function"
				},
				{
					"inputs": [],
					"name": "withdrawRewardDefu",
					"outputs": [],
					"stateMutability": "nonpayable",
					"type": "function"
				},
				{
					"inputs": [
						{
							"internalType": "uint256",
							"name": "_blockNumber",
							"type": "uint256"
						}
					],
					"name": "withdrawUnstakedAmountDefu",
					"outputs": [],
					"stateMutability": "nonpayable",
					"type": "function"
				}
			],
			"devdoc": {
				"kind": "dev",
				"methods": {},
				"version": 1
			},
			"evm": {
				"assembly": "    /* \"StakeMaster/stake.sol\":1377:5382  contract StakeMaster {... */\n  mstore(0x40, 0x80)\n    /* \"StakeMaster/stake.sol\":1710:1774  address addressSvic = 0xCdde1f5D971A369eB952192F9a5C367f33a0A891 */\n  0x05\n  dup1\n  sload\n  not(sub(shl(0xa0, 0x01), 0x01))\n  swap1\n  dup2\n  and\n    /* \"StakeMaster/stake.sol\":1732:1774  0xCdde1f5D971A369eB952192F9a5C367f33a0A891 */\n  0xcdde1f5d971a369eb952192f9a5c367f33a0a891\n    /* \"StakeMaster/stake.sol\":1710:1774  address addressSvic = 0xCdde1f5D971A369eB952192F9a5C367f33a0A891 */\n  or\n  swap1\n  swap2\n  sstore\n    /* \"StakeMaster/stake.sol\":1780:1845  address contractBary = 0x0AFdBE5989CAB06E66244CC2583F0caeECb6EA8e */\n  0x06\n  dup1\n  sload\n  dup3\n  and\n    /* \"StakeMaster/stake.sol\":1803:1845  0x0AFdBE5989CAB06E66244CC2583F0caeECb6EA8e */\n  0x0afdbe5989cab06e66244cc2583f0caeecb6ea8e\n    /* \"StakeMaster/stake.sol\":1780:1845  address contractBary = 0x0AFdBE5989CAB06E66244CC2583F0caeECb6EA8e */\n  or\n  swap1\n  sstore\n    /* \"StakeMaster/stake.sol\":1851:1920  address contractDefution = 0x6D2B2e6ff4D7614994a4314D492207b6342b1029 */\n  0x07\n  dup1\n  sload\n  swap1\n  swap2\n  and\n    /* \"StakeMaster/stake.sol\":1878:1920  0x6D2B2e6ff4D7614994a4314D492207b6342b1029 */\n  0x6d2b2e6ff4d7614994a4314d492207b6342b1029\n    /* \"StakeMaster/stake.sol\":1851:1920  address contractDefution = 0x6D2B2e6ff4D7614994a4314D492207b6342b1029 */\n  or\n  swap1\n  sstore\n    /* \"StakeMaster/stake.sol\":1377:5382  contract StakeMaster {... */\n  callvalue\n  dup1\n  iszero\n  tag_1\n  jumpi\n  0x00\n  dup1\n  revert\ntag_1:\n  pop\n  dataSize(sub_0)\n  dup1\n  dataOffset(sub_0)\n  0x00\n  codecopy\n  0x00\n  return\nstop\n\nsub_0: assembly {\n        /* \"StakeMaster/stake.sol\":1377:5382  contract StakeMaster {... */\n      mstore(0x40, 0x80)\n      jumpi(tag_1, lt(calldatasize, 0x04))\n      shr(0xe0, calldataload(0x00))\n      dup1\n      0x6139f158\n      gt\n      tag_19\n      jumpi\n      dup1\n      0xd0e30db0\n      gt\n      tag_20\n      jumpi\n      dup1\n      0xd0e30db0\n      eq\n      tag_14\n      jumpi\n      dup1\n      0xd2e3663e\n      eq\n      tag_15\n      jumpi\n      dup1\n      0xea77278c\n      eq\n      tag_16\n      jumpi\n      dup1\n      0xf81e4685\n      eq\n      tag_17\n      jumpi\n      dup1\n      0xfbcda19a\n      eq\n      tag_18\n      jumpi\n      0x00\n      dup1\n      revert\n    tag_20:\n      dup1\n      0x6139f158\n      eq\n      tag_10\n      jumpi\n      dup1\n      0xad7a672f\n      eq\n      tag_11\n      jumpi\n      dup1\n      0xba46a6e2\n      eq\n      tag_12\n      jumpi\n      dup1\n      0xbff28a23\n      eq\n      tag_8\n      jumpi\n      0x00\n      dup1\n      revert\n    tag_19:\n      dup1\n      0x2e585fd8\n      gt\n      tag_21\n      jumpi\n      dup1\n      0x2e585fd8\n      eq\n      tag_6\n      jumpi\n      dup1\n      0x3ccfd60b\n      eq\n      tag_7\n      jumpi\n      dup1\n      0x4321b1c0\n      eq\n      tag_8\n      jumpi\n      dup1\n      0x56d6ea4f\n      eq\n      tag_9\n      jumpi\n      0x00\n      dup1\n      revert\n    tag_21:\n      dup1\n      0x0700037d\n      eq\n      tag_2\n      jumpi\n      dup1\n      0x23b3b9e0\n      eq\n      tag_3\n      jumpi\n      dup1\n      0x27e235e3\n      eq\n      tag_4\n      jumpi\n      dup1\n      0x2de9269e\n      eq\n      tag_5\n      jumpi\n    tag_1:\n      0x00\n      dup1\n      revert\n        /* \"StakeMaster/stake.sol\":1628:1670  mapping(address => uint256) public rewards */\n    tag_2:\n      callvalue\n      dup1\n      iszero\n      tag_22\n      jumpi\n      0x00\n      dup1\n      revert\n    tag_22:\n      pop\n      tag_23\n      tag_24\n      calldatasize\n      0x04\n      tag_25\n      jump\t// in\n    tag_24:\n      mstore(0x20, 0x03)\n      0x00\n      swap1\n      dup2\n      mstore\n      0x40\n      swap1\n      keccak256\n      sload\n      dup2\n      jump\n    tag_23:\n      mload(0x40)\n        /* \"#utility.yul\":529:554   */\n      swap1\n      dup2\n      mstore\n        /* \"#utility.yul\":517:519   */\n      0x20\n        /* \"#utility.yul\":502:520   */\n      add\n        /* \"StakeMaster/stake.sol\":1628:1670  mapping(address => uint256) public rewards */\n    tag_27:\n      mload(0x40)\n      dup1\n      swap2\n      sub\n      swap1\n      return\n        /* \"StakeMaster/stake.sol\":4739:4858  function unstakeDefu(uint256 _amount) public {... */\n    tag_3:\n      callvalue\n      dup1\n      iszero\n      tag_29\n      jumpi\n      0x00\n      dup1\n      revert\n    tag_29:\n      pop\n      tag_30\n      tag_31\n      calldatasize\n      0x04\n      tag_32\n      jump\t// in\n    tag_31:\n      tag_33\n      jump\t// in\n    tag_30:\n      stop\n        /* \"StakeMaster/stake.sol\":1462:1505  mapping(address => uint256) public balances */\n    tag_4:\n      callvalue\n      dup1\n      iszero\n      tag_34\n      jumpi\n      0x00\n      dup1\n      revert\n    tag_34:\n      pop\n      tag_23\n      tag_36\n      calldatasize\n      0x04\n      tag_25\n      jump\t// in\n    tag_36:\n      0x00\n      0x20\n      dup2\n      swap1\n      mstore\n      swap1\n      dup2\n      mstore\n      0x40\n      swap1\n      keccak256\n      sload\n      dup2\n      jump\n        /* \"StakeMaster/stake.sol\":4224:4354  function getBlockNumber(address wallet) public view returns (uint256[] memory) {... */\n    tag_5:\n      callvalue\n      dup1\n      iszero\n      tag_39\n      jumpi\n      0x00\n      dup1\n      revert\n    tag_39:\n      pop\n      tag_40\n      tag_41\n      calldatasize\n      0x04\n      tag_25\n      jump\t// in\n    tag_41:\n      tag_42\n      jump\t// in\n    tag_40:\n      mload(0x40)\n      tag_27\n      swap2\n      swap1\n      tag_44\n      jump\t// in\n        /* \"StakeMaster/stake.sol\":3226:3434  function withdrawPending(uint256 blockNumber) public {... */\n    tag_6:\n      callvalue\n      dup1\n      iszero\n      tag_45\n      jumpi\n      0x00\n      dup1\n      revert\n    tag_45:\n      pop\n      tag_30\n      tag_47\n      calldatasize\n      0x04\n      tag_32\n      jump\t// in\n    tag_47:\n      tag_48\n      jump\t// in\n        /* \"StakeMaster/stake.sol\":2588:3220  function withdraw() public {... */\n    tag_7:\n      callvalue\n      dup1\n      iszero\n      tag_49\n      jumpi\n      0x00\n      dup1\n      revert\n    tag_49:\n      pop\n      tag_30\n      tag_51\n      jump\t// in\n        /* \"StakeMaster/stake.sol\":4456:4560  function harvestDefu() public {... */\n    tag_8:\n      callvalue\n      dup1\n      iszero\n      tag_52\n      jumpi\n      0x00\n      dup1\n      revert\n    tag_52:\n      pop\n      tag_30\n      tag_54\n      jump\t// in\n        /* \"StakeMaster/stake.sol\":1511:1560  mapping(address => uint256) public pendingUnstake */\n    tag_9:\n      callvalue\n      dup1\n      iszero\n      tag_55\n      jumpi\n      0x00\n      dup1\n      revert\n    tag_55:\n      pop\n      tag_23\n      tag_57\n      calldatasize\n      0x04\n      tag_25\n      jump\t// in\n    tag_57:\n      mstore(0x20, 0x01)\n      0x00\n      swap1\n      dup2\n      mstore\n      0x40\n      swap1\n      keccak256\n      sload\n      dup2\n      jump\n        /* \"StakeMaster/stake.sol\":5182:5380  function getWithdrawBlockNumbersDefu(address _staker)... */\n    tag_10:\n      callvalue\n      dup1\n      iszero\n      tag_60\n      jumpi\n      0x00\n      dup1\n      revert\n    tag_60:\n      pop\n      tag_30\n      tag_62\n      calldatasize\n      0x04\n      tag_25\n      jump\t// in\n    tag_62:\n      tag_63\n      jump\t// in\n        /* \"StakeMaster/stake.sol\":1676:1703  uint256 public totalBalance */\n    tag_11:\n      callvalue\n      dup1\n      iszero\n      tag_64\n      jumpi\n      0x00\n      dup1\n      revert\n    tag_64:\n      pop\n      tag_23\n      sload(0x04)\n      dup2\n      jump\n        /* \"StakeMaster/stake.sol\":4574:4733  function unstakeBary(uint256 _amount) public {... */\n    tag_12:\n      callvalue\n      dup1\n      iszero\n      tag_68\n      jumpi\n      0x00\n      dup1\n      revert\n    tag_68:\n      pop\n      tag_30\n      tag_70\n      calldatasize\n      0x04\n      tag_32\n      jump\t// in\n    tag_70:\n      tag_71\n      jump\t// in\n        /* \"StakeMaster/stake.sol\":1928:2582  function deposit() public payable {... */\n    tag_14:\n      tag_30\n      tag_76\n      jump\t// in\n        /* \"StakeMaster/stake.sol\":1566:1622  mapping(address => uint256[]) public pendingUnstakeBlock */\n    tag_15:\n      callvalue\n      dup1\n      iszero\n      tag_77\n      jumpi\n      0x00\n      dup1\n      revert\n    tag_77:\n      pop\n      tag_23\n      tag_79\n      calldatasize\n      0x04\n      tag_80\n      jump\t// in\n    tag_79:\n      tag_81\n      jump\t// in\n        /* \"StakeMaster/stake.sol\":3440:4219  function reStake(address[] memory listAddress) public {... */\n    tag_16:\n      callvalue\n      dup1\n      iszero\n      tag_83\n      jumpi\n      0x00\n      dup1\n      revert\n    tag_83:\n      pop\n      tag_30\n      tag_85\n      calldatasize\n      0x04\n      tag_86\n      jump\t// in\n    tag_85:\n      tag_87\n      jump\t// in\n        /* \"StakeMaster/stake.sol\":4360:4450  function harvestBary() public {... */\n    tag_17:\n      callvalue\n      dup1\n      iszero\n      tag_88\n      jumpi\n      0x00\n      dup1\n      revert\n    tag_88:\n      pop\n      tag_30\n      tag_90\n      jump\t// in\n        /* \"StakeMaster/stake.sol\":4981:5176  function withdrawUnstakedAmountDefu(... */\n    tag_18:\n      callvalue\n      dup1\n      iszero\n      tag_91\n      jumpi\n      0x00\n      dup1\n      revert\n    tag_91:\n      pop\n      tag_30\n      tag_93\n      calldatasize\n      0x04\n      tag_32\n      jump\t// in\n    tag_93:\n      tag_94\n      jump\t// in\n        /* \"StakeMaster/stake.sol\":4739:4858  function unstakeDefu(uint256 _amount) public {... */\n    tag_33:\n        /* \"StakeMaster/stake.sol\":4817:4833  contractDefution */\n      sload(0x07)\n        /* \"StakeMaster/stake.sol\":4794:4851  IContractStakeDefusion(contractDefution).unstake(_amount) */\n      mload(0x40)\n      shl(0xe3, 0x05c2fbcf)\n      dup2\n      mstore\n      0x04\n      dup2\n      add\n        /* \"#utility.yul\":529:554   */\n      dup4\n      swap1\n      mstore\n      sub(shl(0xa0, 0x01), 0x01)\n        /* \"StakeMaster/stake.sol\":4817:4833  contractDefution */\n      swap1\n      swap2\n      and\n      swap1\n        /* \"StakeMaster/stake.sol\":4794:4842  IContractStakeDefusion(contractDefution).unstake */\n      0x2e17de78\n      swap1\n        /* \"#utility.yul\":502:520   */\n      0x24\n      add\n        /* \"StakeMaster/stake.sol\":4794:4851  IContractStakeDefusion(contractDefution).unstake(_amount) */\n    tag_96:\n      0x00\n      mload(0x40)\n      dup1\n      dup4\n      sub\n      dup2\n      0x00\n      dup8\n      dup1\n      extcodesize\n      iszero\n      dup1\n      iszero\n      tag_97\n      jumpi\n      0x00\n      dup1\n      revert\n    tag_97:\n      pop\n      gas\n      call\n      iszero\n      dup1\n      iszero\n      tag_99\n      jumpi\n      returndatasize\n      0x00\n      dup1\n      returndatacopy\n      revert(0x00, returndatasize)\n    tag_99:\n      pop\n      pop\n      pop\n      pop\n        /* \"StakeMaster/stake.sol\":4739:4858  function unstakeDefu(uint256 _amount) public {... */\n      pop\n      jump\t// out\n        /* \"StakeMaster/stake.sol\":4224:4354  function getBlockNumber(address wallet) public view returns (uint256[] memory) {... */\n    tag_42:\n      sub(shl(0xa0, 0x01), 0x01)\n        /* \"StakeMaster/stake.sol\":4320:4347  pendingUnstakeBlock[wallet] */\n      dup2\n      and\n      0x00\n      swap1\n      dup2\n      mstore\n        /* \"StakeMaster/stake.sol\":4320:4339  pendingUnstakeBlock */\n      0x02\n        /* \"StakeMaster/stake.sol\":4320:4347  pendingUnstakeBlock[wallet] */\n      0x20\n      swap1\n      dup2\n      mstore\n      0x40\n      swap2\n      dup3\n      swap1\n      keccak256\n        /* \"StakeMaster/stake.sol\":4313:4347  return pendingUnstakeBlock[wallet] */\n      dup1\n      sload\n      dup4\n      mload\n      dup2\n      dup5\n      mul\n      dup2\n      add\n      dup5\n      add\n      swap1\n      swap5\n      mstore\n      dup1\n      dup5\n      mstore\n        /* \"StakeMaster/stake.sol\":4285:4301  uint256[] memory */\n      0x60\n      swap4\n        /* \"StakeMaster/stake.sol\":4313:4347  return pendingUnstakeBlock[wallet] */\n      swap3\n      dup4\n      add\n        /* \"StakeMaster/stake.sol\":4320:4347  pendingUnstakeBlock[wallet] */\n      dup3\n        /* \"StakeMaster/stake.sol\":4313:4347  return pendingUnstakeBlock[wallet] */\n      dup3\n      dup1\n      iszero\n      tag_101\n      jumpi\n      0x20\n      mul\n      dup3\n      add\n      swap2\n      swap1\n      0x00\n      mstore\n      keccak256(0x00, 0x20)\n      swap1\n    tag_102:\n      dup2\n      sload\n      dup2\n      mstore\n      0x20\n      add\n      swap1\n      0x01\n      add\n      swap1\n      dup1\n      dup4\n      gt\n      tag_102\n      jumpi\n    tag_101:\n      pop\n      pop\n      pop\n      pop\n      pop\n      swap1\n      pop\n        /* \"StakeMaster/stake.sol\":4224:4354  function getBlockNumber(address wallet) public view returns (uint256[] memory) {... */\n      swap2\n      swap1\n      pop\n      jump\t// out\n        /* \"StakeMaster/stake.sol\":3226:3434  function withdrawPending(uint256 blockNumber) public {... */\n    tag_48:\n        /* \"StakeMaster/stake.sol\":3312:3328  contractDefution */\n      sload(0x07)\n        /* \"StakeMaster/stake.sol\":3289:3387  IContractStakeDefusion(contractDefution).withdrawUnstakedAmount(... */\n      mload(0x40)\n      shl(0xe0, 0x9d59e1b9)\n      dup2\n      mstore\n      0x04\n      dup2\n      add\n        /* \"#utility.yul\":529:554   */\n      dup4\n      swap1\n      mstore\n      sub(shl(0xa0, 0x01), 0x01)\n        /* \"StakeMaster/stake.sol\":3312:3328  contractDefution */\n      swap1\n      swap2\n      and\n      swap1\n        /* \"StakeMaster/stake.sol\":3289:3352  IContractStakeDefusion(contractDefution).withdrawUnstakedAmount */\n      0x9d59e1b9\n      swap1\n        /* \"#utility.yul\":502:520   */\n      0x24\n      add\n        /* \"StakeMaster/stake.sol\":3289:3387  IContractStakeDefusion(contractDefution).withdrawUnstakedAmount(... */\n      0x00\n      mload(0x40)\n      dup1\n      dup4\n      sub\n      dup2\n      0x00\n      dup8\n      dup1\n      extcodesize\n      iszero\n      dup1\n      iszero\n      tag_105\n      jumpi\n      0x00\n      dup1\n      revert\n    tag_105:\n      pop\n      gas\n      call\n      iszero\n      dup1\n      iszero\n      tag_107\n      jumpi\n      returndatasize\n      0x00\n      dup1\n      returndatacopy\n      revert(0x00, returndatasize)\n    tag_107:\n      pop\n      pop\n        /* \"StakeMaster/stake.sol\":3412:3422  msg.sender */\n      caller\n        /* \"StakeMaster/stake.sol\":3426:3427  0 */\n      0x00\n        /* \"StakeMaster/stake.sol\":3397:3423  pendingUnstake[msg.sender] */\n      swap1\n      dup2\n      mstore\n        /* \"StakeMaster/stake.sol\":3397:3411  pendingUnstake */\n      0x01\n        /* \"StakeMaster/stake.sol\":3397:3423  pendingUnstake[msg.sender] */\n      0x20\n      mstore\n      0x40\n      dup2\n      keccak256\n        /* \"StakeMaster/stake.sol\":3397:3427  pendingUnstake[msg.sender] = 0 */\n      sstore\n      pop\n      pop\n      pop\n        /* \"StakeMaster/stake.sol\":3226:3434  function withdrawPending(uint256 blockNumber) public {... */\n      jump\t// out\n        /* \"StakeMaster/stake.sol\":2588:3220  function withdraw() public {... */\n    tag_51:\n        /* \"StakeMaster/stake.sol\":2675:2685  msg.sender */\n      caller\n        /* \"StakeMaster/stake.sol\":2625:2638  uint256 total */\n      0x00\n        /* \"StakeMaster/stake.sol\":2667:2686  rewards[msg.sender] */\n      swap1\n      dup2\n      mstore\n        /* \"StakeMaster/stake.sol\":2667:2674  rewards */\n      0x03\n        /* \"StakeMaster/stake.sol\":2667:2686  rewards[msg.sender] */\n      0x20\n      swap1\n      dup2\n      mstore\n      0x40\n      dup1\n      dup4\n      keccak256\n      sload\n        /* \"StakeMaster/stake.sol\":2658:2662  this */\n      address\n        /* \"StakeMaster/stake.sol\":2641:2664  balances[address(this)] */\n      dup5\n      mstore\n      swap2\n      dup4\n      swap1\n      mstore\n      dup3\n      keccak256\n      sload\n        /* \"StakeMaster/stake.sol\":2641:2686  balances[address(this)] + rewards[msg.sender] */\n      tag_109\n      swap2\n        /* \"StakeMaster/stake.sol\":2667:2686  rewards[msg.sender] */\n      swap1\n        /* \"StakeMaster/stake.sol\":2641:2686  balances[address(this)] + rewards[msg.sender] */\n      tag_110\n      jump\t// in\n    tag_109:\n        /* \"StakeMaster/stake.sol\":2715:2727  contractBary */\n      sload(0x06)\n        /* \"StakeMaster/stake.sol\":2696:2791  IContractStakeBary(contractBary).withdrawAndHarvest(... */\n      mload(0x40)\n      shl(0xe0, 0x348b597f)\n      dup2\n      mstore\n        /* \"StakeMaster/stake.sol\":2715:2727  contractBary */\n      0x00\n        /* \"StakeMaster/stake.sol\":2696:2791  IContractStakeBary(contractBary).withdrawAndHarvest(... */\n      0x04\n      dup3\n      add\n        /* \"#utility.yul\":3592:3617   */\n      mstore\n        /* \"#utility.yul\":3633:3651   */\n      0x24\n      dup2\n      add\n        /* \"#utility.yul\":3626:3660   */\n      dup4\n      swap1\n      mstore\n        /* \"StakeMaster/stake.sol\":2625:2686  uint256 total = balances[address(this)] + rewards[msg.sender] */\n      swap2\n      swap3\n      pop\n      sub(shl(0xa0, 0x01), 0x01)\n        /* \"StakeMaster/stake.sol\":2715:2727  contractBary */\n      and\n      swap1\n        /* \"StakeMaster/stake.sol\":2696:2747  IContractStakeBary(contractBary).withdrawAndHarvest */\n      0x348b597f\n      swap1\n        /* \"#utility.yul\":3565:3583   */\n      0x44\n      add\n        /* \"StakeMaster/stake.sol\":2696:2791  IContractStakeBary(contractBary).withdrawAndHarvest(... */\n      0x00\n      mload(0x40)\n      dup1\n      dup4\n      sub\n      dup2\n      0x00\n      dup8\n      dup1\n      extcodesize\n      iszero\n      dup1\n      iszero\n      tag_113\n      jumpi\n      0x00\n      dup1\n      revert\n    tag_113:\n      pop\n      gas\n      call\n      iszero\n      dup1\n      iszero\n      tag_115\n      jumpi\n      returndatasize\n      0x00\n      dup1\n      returndatacopy\n      revert(0x00, returndatasize)\n    tag_115:\n      pop\n      pop\n        /* \"StakeMaster/stake.sol\":2824:2840  contractDefution */\n      sload(0x07)\n        /* \"StakeMaster/stake.sol\":2801:2856  IContractStakeDefusion(contractDefution).unstake(total) */\n      mload(0x40)\n      shl(0xe3, 0x05c2fbcf)\n      dup2\n      mstore\n      0x04\n      dup2\n      add\n        /* \"#utility.yul\":529:554   */\n      dup6\n      swap1\n      mstore\n      sub(shl(0xa0, 0x01), 0x01)\n        /* \"StakeMaster/stake.sol\":2824:2840  contractDefution */\n      swap1\n      swap2\n      and\n      swap3\n      pop\n        /* \"StakeMaster/stake.sol\":2801:2849  IContractStakeDefusion(contractDefution).unstake */\n      0x2e17de78\n      swap2\n      pop\n        /* \"#utility.yul\":502:520   */\n      0x24\n      add\n        /* \"StakeMaster/stake.sol\":2801:2856  IContractStakeDefusion(contractDefution).unstake(total) */\n      0x00\n      mload(0x40)\n      dup1\n      dup4\n      sub\n      dup2\n      0x00\n      dup8\n      dup1\n      extcodesize\n      iszero\n      dup1\n      iszero\n      tag_117\n      jumpi\n      0x00\n      dup1\n      revert\n    tag_117:\n      pop\n      gas\n      call\n      iszero\n      dup1\n      iszero\n      tag_119\n      jumpi\n      returndatasize\n      0x00\n      dup1\n      returndatacopy\n      revert(0x00, returndatasize)\n    tag_119:\n      pop\n      pop\n        /* \"StakeMaster/stake.sol\":2935:2951  contractDefution */\n      sload(0x07)\n        /* \"StakeMaster/stake.sol\":2899:3000  IContractStakeDefusion(... */\n      mload(0x40)\n      shl(0xe0, 0xacc77b87)\n      dup2\n      mstore\n        /* \"StakeMaster/stake.sol\":2994:2998  this */\n      address\n        /* \"StakeMaster/stake.sol\":2899:3000  IContractStakeDefusion(... */\n      0x04\n      dup3\n      add\n        /* \"#utility.yul\":3817:3868   */\n      mstore\n        /* \"StakeMaster/stake.sol\":2867:2896  uint256[] memory blockNumbers */\n      0x00\n      swap4\n      pop\n      sub(shl(0xa0, 0x01), 0x01)\n        /* \"StakeMaster/stake.sol\":2935:2951  contractDefution */\n      swap1\n      swap2\n      and\n      swap2\n      pop\n        /* \"StakeMaster/stake.sol\":2899:2985  IContractStakeDefusion(... */\n      0xacc77b87\n      swap1\n        /* \"#utility.yul\":3790:3808   */\n      0x24\n      add\n        /* \"StakeMaster/stake.sol\":2899:3000  IContractStakeDefusion(... */\n      0x00\n      mload(0x40)\n      dup1\n      dup4\n      sub\n      dup2\n      dup7\n      gas\n      staticcall\n      iszero\n      dup1\n      iszero\n      tag_123\n      jumpi\n      returndatasize\n      0x00\n      dup1\n      returndatacopy\n      revert(0x00, returndatasize)\n    tag_123:\n      pop\n      pop\n      pop\n      pop\n      mload(0x40)\n      returndatasize\n      0x00\n      dup3\n      returndatacopy\n      0x1f\n      returndatasize\n      swap1\n      dup2\n      add\n      not(0x1f)\n      and\n      dup3\n      add\n      0x40\n      mstore\n      tag_124\n      swap2\n      swap1\n      dup2\n      add\n      swap1\n      tag_125\n      jump\t// in\n    tag_124:\n        /* \"StakeMaster/stake.sol\":3050:3060  msg.sender */\n      caller\n        /* \"StakeMaster/stake.sol\":3041:3049  balances */\n      0x00\n        /* \"StakeMaster/stake.sol\":3041:3061  balances[msg.sender] */\n      swap1\n      dup2\n      mstore\n      0x20\n      dup2\n      dup2\n      mstore\n      0x40\n      dup1\n      dup4\n      keccak256\n      sload\n        /* \"StakeMaster/stake.sol\":3011:3025  pendingUnstake */\n      0x01\n        /* \"StakeMaster/stake.sol\":3011:3037  pendingUnstake[msg.sender] */\n      swap1\n      swap3\n      mstore\n      dup3\n      keccak256\n        /* \"StakeMaster/stake.sol\":3011:3061  pendingUnstake[msg.sender] += balances[msg.sender] */\n      dup1\n      sload\n        /* \"StakeMaster/stake.sol\":2867:3000  uint256[] memory blockNumbers = IContractStakeDefusion(... */\n      swap4\n      swap5\n      pop\n        /* \"StakeMaster/stake.sol\":3041:3061  balances[msg.sender] */\n      swap1\n      swap3\n        /* \"StakeMaster/stake.sol\":3011:3037  pendingUnstake[msg.sender] */\n      swap1\n      swap2\n        /* \"StakeMaster/stake.sol\":3041:3049  balances */\n      swap1\n        /* \"StakeMaster/stake.sol\":3011:3061  pendingUnstake[msg.sender] += balances[msg.sender] */\n      tag_126\n      swap1\n        /* \"StakeMaster/stake.sol\":3041:3061  balances[msg.sender] */\n      dup5\n      swap1\n        /* \"StakeMaster/stake.sol\":3011:3061  pendingUnstake[msg.sender] += balances[msg.sender] */\n      tag_110\n      jump\t// in\n    tag_126:\n      swap1\n      swap2\n      sstore\n      pop\n      pop\n        /* \"StakeMaster/stake.sol\":3080:3090  msg.sender */\n      caller\n        /* \"StakeMaster/stake.sol\":3094:3095  0 */\n      0x00\n        /* \"StakeMaster/stake.sol\":3071:3091  balances[msg.sender] */\n      swap1\n      dup2\n      mstore\n      0x20\n      dup2\n      dup2\n      mstore\n      0x40\n      dup1\n      dup4\n      keccak256\n        /* \"StakeMaster/stake.sol\":3071:3095  balances[msg.sender] = 0 */\n      dup4\n      swap1\n      sstore\n        /* \"StakeMaster/stake.sol\":3105:3124  pendingUnstakeBlock */\n      0x02\n        /* \"StakeMaster/stake.sol\":3105:3136  pendingUnstakeBlock[msg.sender] */\n      swap1\n      swap2\n      mstore\n      swap1\n      keccak256\n        /* \"StakeMaster/stake.sol\":3155:3174  blockNumbers.length */\n      dup2\n      mload\n        /* \"StakeMaster/stake.sol\":3142:3154  blockNumbers */\n      dup3\n      swap1\n        /* \"StakeMaster/stake.sol\":3155:3178  blockNumbers.length - 1 */\n      tag_127\n      swap1\n        /* \"StakeMaster/stake.sol\":3177:3178  1 */\n      0x01\n      swap1\n        /* \"StakeMaster/stake.sol\":3155:3178  blockNumbers.length - 1 */\n      tag_128\n      jump\t// in\n    tag_127:\n        /* \"StakeMaster/stake.sol\":3142:3179  blockNumbers[blockNumbers.length - 1] */\n      dup2\n      mload\n      dup2\n      lt\n      tag_130\n      jumpi\n      tag_130\n      tag_131\n      jump\t// in\n    tag_130:\n      0x20\n      swap1\n      dup2\n      mul\n      swap2\n      swap1\n      swap2\n      add\n      dup2\n      add\n      mload\n        /* \"StakeMaster/stake.sol\":3105:3180  pendingUnstakeBlock[msg.sender].push(blockNumbers[blockNumbers.length - 1]) */\n      dup3\n      sload\n      0x01\n      dup2\n      add\n      dup5\n      sstore\n      0x00\n      swap4\n      dup5\n      mstore\n      dup3\n      dup5\n      keccak256\n      add\n      sstore\n        /* \"StakeMaster/stake.sol\":3198:3208  msg.sender */\n      caller\n        /* \"StakeMaster/stake.sol\":3190:3209  rewards[msg.sender] */\n      dup3\n      mstore\n        /* \"StakeMaster/stake.sol\":3190:3197  rewards */\n      0x03\n        /* \"StakeMaster/stake.sol\":3190:3209  rewards[msg.sender] */\n      swap1\n      mstore\n      0x40\n      dup2\n      keccak256\n        /* \"StakeMaster/stake.sol\":3190:3213  rewards[msg.sender] = 0 */\n      sstore\n      pop\n      pop\n        /* \"StakeMaster/stake.sol\":2588:3220  function withdraw() public {... */\n      jump\t// out\n        /* \"StakeMaster/stake.sol\":4456:4560  function harvestDefu() public {... */\n    tag_54:\n        /* \"StakeMaster/stake.sol\":4519:4535  contractDefution */\n      0x07\n      0x00\n      swap1\n      sload\n      swap1\n      0x0100\n      exp\n      swap1\n      div\n      sub(shl(0xa0, 0x01), 0x01)\n      and\n      sub(shl(0xa0, 0x01), 0x01)\n        /* \"StakeMaster/stake.sol\":4496:4551  IContractStakeDefusion(contractDefution).withdrawReward */\n      and\n      0xc885bc58\n        /* \"StakeMaster/stake.sol\":4496:4553  IContractStakeDefusion(contractDefution).withdrawReward() */\n      mload(0x40)\n      dup2\n      0xffffffff\n      and\n      0xe0\n      shl\n      dup2\n      mstore\n      0x04\n      add\n      0x00\n      mload(0x40)\n      dup1\n      dup4\n      sub\n      dup2\n      0x00\n      dup8\n      dup1\n      extcodesize\n      iszero\n      dup1\n      iszero\n      tag_134\n      jumpi\n      0x00\n      dup1\n      revert\n    tag_134:\n      pop\n      gas\n      call\n      iszero\n      dup1\n      iszero\n      tag_136\n      jumpi\n      returndatasize\n      0x00\n      dup1\n      returndatacopy\n      revert(0x00, returndatasize)\n    tag_136:\n      pop\n      pop\n      pop\n      pop\n        /* \"StakeMaster/stake.sol\":4456:4560  function harvestDefu() public {... */\n      jump\t// out\n        /* \"StakeMaster/stake.sol\":5182:5380  function getWithdrawBlockNumbersDefu(address _staker)... */\n    tag_63:\n        /* \"StakeMaster/stake.sol\":5301:5317  contractDefution */\n      sload(0x07)\n        /* \"StakeMaster/stake.sol\":5278:5373  IContractStakeDefusion(contractDefution).getWithdrawBlockNumbers(... */\n      mload(0x40)\n      shl(0xe0, 0xacc77b87)\n      dup2\n      mstore\n      sub(shl(0xa0, 0x01), 0x01)\n        /* \"#utility.yul\":3835:3867   */\n      dup4\n      dup2\n      and\n        /* \"StakeMaster/stake.sol\":5278:5373  IContractStakeDefusion(contractDefution).getWithdrawBlockNumbers(... */\n      0x04\n      dup4\n      add\n        /* \"#utility.yul\":3817:3868   */\n      mstore\n        /* \"StakeMaster/stake.sol\":5301:5317  contractDefution */\n      swap1\n      swap2\n      and\n      swap1\n        /* \"StakeMaster/stake.sol\":5278:5342  IContractStakeDefusion(contractDefution).getWithdrawBlockNumbers */\n      0xacc77b87\n      swap1\n        /* \"#utility.yul\":3790:3808   */\n      0x24\n      add\n        /* \"StakeMaster/stake.sol\":5278:5373  IContractStakeDefusion(contractDefution).getWithdrawBlockNumbers(... */\n      0x00\n      mload(0x40)\n      dup1\n      dup4\n      sub\n      dup2\n      dup7\n      gas\n      staticcall\n      iszero\n      dup1\n      iszero\n      tag_140\n      jumpi\n      returndatasize\n      0x00\n      dup1\n      returndatacopy\n      revert(0x00, returndatasize)\n    tag_140:\n      pop\n      pop\n      pop\n      pop\n      mload(0x40)\n      returndatasize\n      0x00\n      dup3\n      returndatacopy\n      0x1f\n      returndatasize\n      swap1\n      dup2\n      add\n      not(0x1f)\n      and\n      dup3\n      add\n      0x40\n      mstore\n      tag_141\n      swap2\n      swap1\n      dup2\n      add\n      swap1\n      tag_125\n      jump\t// in\n    tag_141:\n      pop\n        /* \"StakeMaster/stake.sol\":5182:5380  function getWithdrawBlockNumbersDefu(address _staker)... */\n      pop\n      jump\t// out\n        /* \"StakeMaster/stake.sol\":4574:4733  function unstakeBary(uint256 _amount) public {... */\n    tag_71:\n        /* \"StakeMaster/stake.sol\":4648:4660  contractBary */\n      sload(0x06)\n        /* \"StakeMaster/stake.sol\":4629:4726  IContractStakeBary(contractBary).withdrawAndHarvest(... */\n      mload(0x40)\n      shl(0xe0, 0x348b597f)\n      dup2\n      mstore\n        /* \"StakeMaster/stake.sol\":4648:4660  contractBary */\n      0x00\n        /* \"StakeMaster/stake.sol\":4629:4726  IContractStakeBary(contractBary).withdrawAndHarvest(... */\n      0x04\n      dup3\n      add\n        /* \"#utility.yul\":3592:3617   */\n      mstore\n        /* \"#utility.yul\":3633:3651   */\n      0x24\n      dup2\n      add\n        /* \"#utility.yul\":3626:3660   */\n      dup4\n      swap1\n      mstore\n      sub(shl(0xa0, 0x01), 0x01)\n        /* \"StakeMaster/stake.sol\":4648:4660  contractBary */\n      swap1\n      swap2\n      and\n      swap1\n        /* \"StakeMaster/stake.sol\":4629:4680  IContractStakeBary(contractBary).withdrawAndHarvest */\n      0x348b597f\n      swap1\n        /* \"#utility.yul\":3565:3583   */\n      0x44\n      add\n        /* \"StakeMaster/stake.sol\":4629:4726  IContractStakeBary(contractBary).withdrawAndHarvest(... */\n      tag_96\n        /* \"#utility.yul\":3410:3666   */\n      jump\n        /* \"StakeMaster/stake.sol\":1928:2582  function deposit() public payable {... */\n    tag_76:\n        /* \"StakeMaster/stake.sol\":1992:1994  10 */\n      0x0a\n        /* \"StakeMaster/stake.sol\":1980:1989  msg.value */\n      callvalue\n        /* \"StakeMaster/stake.sol\":1980:1994  msg.value > 10 */\n      gt\n        /* \"StakeMaster/stake.sol\":1972:2007  require(msg.value > 10, \"vic > 10\") */\n      tag_152\n      jumpi\n      mload(0x40)\n      shl(0xe5, 0x461bcd)\n      dup2\n      mstore\n        /* \"#utility.yul\":5232:5234   */\n      0x20\n        /* \"StakeMaster/stake.sol\":1972:2007  require(msg.value > 10, \"vic > 10\") */\n      0x04\n      dup3\n      add\n        /* \"#utility.yul\":5214:5235   */\n      mstore\n        /* \"#utility.yul\":5271:5272   */\n      0x08\n        /* \"#utility.yul\":5251:5269   */\n      0x24\n      dup3\n      add\n        /* \"#utility.yul\":5244:5273   */\n      mstore\n      shl(0xc4, 0x0766963203e20313)\n        /* \"#utility.yul\":5289:5307   */\n      0x44\n      dup3\n      add\n        /* \"#utility.yul\":5282:5320   */\n      mstore\n        /* \"#utility.yul\":5337:5355   */\n      0x64\n      add\n        /* \"StakeMaster/stake.sol\":1972:2007  require(msg.value > 10, \"vic > 10\") */\n      mload(0x40)\n      dup1\n      swap2\n      sub\n      swap1\n      revert\n    tag_152:\n        /* \"StakeMaster/stake.sol\":2040:2056  contractDefution */\n      0x07\n      0x00\n      swap1\n      sload\n      swap1\n      0x0100\n      exp\n      swap1\n      div\n      sub(shl(0xa0, 0x01), 0x01)\n      and\n      sub(shl(0xa0, 0x01), 0x01)\n        /* \"StakeMaster/stake.sol\":2017:2063  IContractStakeDefusion(contractDefution).stake */\n      and\n      0x3a4b66f1\n        /* \"StakeMaster/stake.sol\":2071:2080  msg.value */\n      callvalue\n        /* \"StakeMaster/stake.sol\":2017:2083  IContractStakeDefusion(contractDefution).stake{value: msg.value}() */\n      mload(0x40)\n      dup3\n      0xffffffff\n      and\n      0xe0\n      shl\n      dup2\n      mstore\n      0x04\n      add\n      0x00\n      mload(0x40)\n      dup1\n      dup4\n      sub\n      dup2\n      dup6\n      dup9\n      dup1\n      extcodesize\n      iszero\n      dup1\n      iszero\n      tag_155\n      jumpi\n      0x00\n      dup1\n      revert\n    tag_155:\n      pop\n      gas\n      call\n      iszero\n      dup1\n      iszero\n      tag_157\n      jumpi\n      returndatasize\n      0x00\n      dup1\n      returndatacopy\n      revert(0x00, returndatasize)\n    tag_157:\n      pop\n      pop\n        /* \"StakeMaster/stake.sol\":2121:2132  addressSvic */\n      sload(0x05)\n        /* \"StakeMaster/stake.sol\":2159:2171  contractBary */\n      sload(0x06)\n        /* \"StakeMaster/stake.sol\":2114:2172  IERC20(addressSvic).allowance(address(this), contractBary) */\n      mload(0x40)\n      shl(0xe1, 0x6eb1769f)\n      dup2\n      mstore\n        /* \"StakeMaster/stake.sol\":2152:2156  this */\n      address\n        /* \"StakeMaster/stake.sol\":2114:2172  IERC20(addressSvic).allowance(address(this), contractBary) */\n      0x04\n      dup3\n      add\n        /* \"#utility.yul\":5578:5612   */\n      mstore\n      sub(shl(0xa0, 0x01), 0x01)\n        /* \"StakeMaster/stake.sol\":2159:2171  contractBary */\n      swap2\n      dup3\n      and\n        /* \"#utility.yul\":5628:5646   */\n      0x24\n      dup3\n      add\n        /* \"#utility.yul\":5621:5664   */\n      mstore\n        /* \"StakeMaster/stake.sol\":2094:2111  uint256 allowance */\n      0x00\n      swap6\n      pop\n        /* \"StakeMaster/stake.sol\":2121:2132  addressSvic */\n      swap2\n      and\n      swap3\n      pop\n        /* \"StakeMaster/stake.sol\":2114:2143  IERC20(addressSvic).allowance */\n      0xdd62ed3e\n      swap2\n      pop\n        /* \"#utility.yul\":5513:5531   */\n      0x44\n      add\n        /* \"StakeMaster/stake.sol\":2114:2172  IERC20(addressSvic).allowance(address(this), contractBary) */\n      0x20\n      mload(0x40)\n      dup1\n      dup4\n      sub\n      dup2\n      dup7\n      gas\n      staticcall\n      iszero\n      dup1\n      iszero\n      tag_161\n      jumpi\n      returndatasize\n      0x00\n      dup1\n      returndatacopy\n      revert(0x00, returndatasize)\n    tag_161:\n      pop\n      pop\n      pop\n      pop\n      mload(0x40)\n      returndatasize\n      not(0x1f)\n      0x1f\n      dup3\n      add\n      and\n      dup3\n      add\n      dup1\n      0x40\n      mstore\n      pop\n      dup2\n      add\n      swap1\n      tag_162\n      swap2\n      swap1\n      tag_163\n      jump\t// in\n    tag_162:\n        /* \"StakeMaster/stake.sol\":2094:2172  uint256 allowance = IERC20(addressSvic).allowance(address(this), contractBary) */\n      swap1\n      pop\n        /* \"StakeMaster/stake.sol\":2185:2194  allowance */\n      dup1\n        /* \"StakeMaster/stake.sol\":2198:2199  0 */\n      0x00\n        /* \"StakeMaster/stake.sol\":2185:2199  allowance == 0 */\n      sub\n        /* \"StakeMaster/stake.sol\":2182:2377  if(allowance == 0){... */\n      tag_164\n      jumpi\n        /* \"StakeMaster/stake.sol\":2221:2232  addressSvic */\n      sload(0x05)\n        /* \"StakeMaster/stake.sol\":2267:2279  contractBary */\n      sload(0x06)\n        /* \"StakeMaster/stake.sol\":2214:2366  IERC20(addressSvic).approve(... */\n      mload(0x40)\n      shl(0xe0, 0x095ea7b3)\n      dup2\n      mstore\n      sub(shl(0xa0, 0x01), 0x01)\n        /* \"StakeMaster/stake.sol\":2267:2279  contractBary */\n      swap2\n      dup3\n      and\n        /* \"StakeMaster/stake.sol\":2214:2366  IERC20(addressSvic).approve(... */\n      0x04\n      dup3\n      add\n        /* \"#utility.yul\":6084:6135   */\n      mstore\n        /* \"StakeMaster/stake.sol\":2305:2344  100000000000101010010010100100100101001 */\n      0x4b3b4ca85ada522da6eccabc8fd19389\n        /* \"#utility.yul\":6151:6169   */\n      0x24\n      dup3\n      add\n        /* \"#utility.yul\":6144:6178   */\n      mstore\n        /* \"StakeMaster/stake.sol\":2221:2232  addressSvic */\n      swap2\n      and\n      swap1\n        /* \"StakeMaster/stake.sol\":2214:2241  IERC20(addressSvic).approve */\n      0x095ea7b3\n      swap1\n        /* \"#utility.yul\":6057:6075   */\n      0x44\n      add\n        /* \"StakeMaster/stake.sol\":2214:2366  IERC20(addressSvic).approve(... */\n      0x20\n      mload(0x40)\n      dup1\n      dup4\n      sub\n      dup2\n      0x00\n      dup8\n      gas\n      call\n      iszero\n      dup1\n      iszero\n      tag_168\n      jumpi\n      returndatasize\n      0x00\n      dup1\n      returndatacopy\n      revert(0x00, returndatasize)\n    tag_168:\n      pop\n      pop\n      pop\n      pop\n      mload(0x40)\n      returndatasize\n      not(0x1f)\n      0x1f\n      dup3\n      add\n      and\n      dup3\n      add\n      dup1\n      0x40\n      mstore\n      pop\n      dup2\n      add\n      swap1\n      tag_169\n      swap2\n      swap1\n      tag_170\n      jump\t// in\n    tag_169:\n      pop\n        /* \"StakeMaster/stake.sol\":2182:2377  if(allowance == 0){... */\n    tag_164:\n        /* \"StakeMaster/stake.sol\":2426:2437  addressSvic */\n      sload(0x05)\n        /* \"StakeMaster/stake.sol\":2419:2463  IERC20(addressSvic).balanceOf(address(this)) */\n      mload(0x40)\n      shl(0xe0, 0x70a08231)\n      dup2\n      mstore\n        /* \"StakeMaster/stake.sol\":2457:2461  this */\n      address\n        /* \"StakeMaster/stake.sol\":2419:2463  IERC20(addressSvic).balanceOf(address(this)) */\n      0x04\n      dup3\n      add\n        /* \"#utility.yul\":3817:3868   */\n      mstore\n        /* \"StakeMaster/stake.sol\":2394:2416  uint256 receivedTokens */\n      0x00\n      swap2\n      sub(shl(0xa0, 0x01), 0x01)\n        /* \"StakeMaster/stake.sol\":2426:2437  addressSvic */\n      and\n      swap1\n        /* \"StakeMaster/stake.sol\":2419:2448  IERC20(addressSvic).balanceOf */\n      0x70a08231\n      swap1\n        /* \"#utility.yul\":3790:3808   */\n      0x24\n      add\n        /* \"StakeMaster/stake.sol\":2419:2463  IERC20(addressSvic).balanceOf(address(this)) */\n      0x20\n      mload(0x40)\n      dup1\n      dup4\n      sub\n      dup2\n      dup7\n      gas\n      staticcall\n      iszero\n      dup1\n      iszero\n      tag_173\n      jumpi\n      returndatasize\n      0x00\n      dup1\n      returndatacopy\n      revert(0x00, returndatasize)\n    tag_173:\n      pop\n      pop\n      pop\n      pop\n      mload(0x40)\n      returndatasize\n      not(0x1f)\n      0x1f\n      dup3\n      add\n      and\n      dup3\n      add\n      dup1\n      0x40\n      mstore\n      pop\n      dup2\n      add\n      swap1\n      tag_174\n      swap2\n      swap1\n      tag_163\n      jump\t// in\n    tag_174:\n        /* \"StakeMaster/stake.sol\":2492:2504  contractBary */\n      sload(0x06)\n        /* \"StakeMaster/stake.sol\":2473:2532  IContractStakeBary(contractBary).deposit(0, receivedTokens) */\n      mload(0x40)\n      shl(0xe3, 0x1c57762b)\n      dup2\n      mstore\n        /* \"StakeMaster/stake.sol\":2492:2504  contractBary */\n      0x00\n        /* \"StakeMaster/stake.sol\":2473:2532  IContractStakeBary(contractBary).deposit(0, receivedTokens) */\n      0x04\n      dup3\n      add\n        /* \"#utility.yul\":3592:3617   */\n      mstore\n        /* \"#utility.yul\":3633:3651   */\n      0x24\n      dup2\n      add\n        /* \"#utility.yul\":3626:3660   */\n      dup4\n      swap1\n      mstore\n        /* \"StakeMaster/stake.sol\":2394:2463  uint256 receivedTokens = IERC20(addressSvic).balanceOf(address(this)) */\n      swap2\n      swap3\n      pop\n      sub(shl(0xa0, 0x01), 0x01)\n        /* \"StakeMaster/stake.sol\":2492:2504  contractBary */\n      and\n      swap1\n        /* \"StakeMaster/stake.sol\":2473:2513  IContractStakeBary(contractBary).deposit */\n      0xe2bbb158\n      swap1\n        /* \"#utility.yul\":3565:3583   */\n      0x44\n      add\n        /* \"StakeMaster/stake.sol\":2473:2532  IContractStakeBary(contractBary).deposit(0, receivedTokens) */\n      0x00\n      mload(0x40)\n      dup1\n      dup4\n      sub\n      dup2\n      0x00\n      dup8\n      dup1\n      extcodesize\n      iszero\n      dup1\n      iszero\n      tag_176\n      jumpi\n      0x00\n      dup1\n      revert\n    tag_176:\n      pop\n      gas\n      call\n      iszero\n      dup1\n      iszero\n      tag_178\n      jumpi\n      returndatasize\n      0x00\n      dup1\n      returndatacopy\n      revert(0x00, returndatasize)\n    tag_178:\n      pop\n      pop\n        /* \"StakeMaster/stake.sol\":2551:2561  msg.sender */\n      caller\n        /* \"StakeMaster/stake.sol\":2542:2550  balances */\n      0x00\n        /* \"StakeMaster/stake.sol\":2542:2562  balances[msg.sender] */\n      swap1\n      dup2\n      mstore\n      0x20\n      dup2\n      swap1\n      mstore\n      0x40\n      dup2\n      keccak256\n        /* \"StakeMaster/stake.sol\":2542:2575  balances[msg.sender] += msg.value */\n      dup1\n      sload\n        /* \"StakeMaster/stake.sol\":2566:2575  msg.value */\n      callvalue\n      swap5\n      pop\n        /* \"StakeMaster/stake.sol\":2542:2562  balances[msg.sender] */\n      swap1\n      swap3\n      pop\n        /* \"StakeMaster/stake.sol\":2542:2575  balances[msg.sender] += msg.value */\n      tag_179\n      swap1\n        /* \"StakeMaster/stake.sol\":2566:2575  msg.value */\n      dup5\n      swap1\n        /* \"StakeMaster/stake.sol\":2542:2575  balances[msg.sender] += msg.value */\n      tag_110\n      jump\t// in\n    tag_179:\n      swap1\n      swap2\n      sstore\n      pop\n      pop\n      pop\n      pop\n        /* \"StakeMaster/stake.sol\":1928:2582  function deposit() public payable {... */\n      jump\t// out\n        /* \"StakeMaster/stake.sol\":1566:1622  mapping(address => uint256[]) public pendingUnstakeBlock */\n    tag_81:\n      mstore(0x20, 0x02)\n      dup2\n      0x00\n      mstore\n      keccak256(0x00, 0x40)\n      dup2\n      dup2\n      sload\n      dup2\n      lt\n      tag_180\n      jumpi\n      0x00\n      dup1\n      revert\n    tag_180:\n      swap1\n      0x00\n      mstore\n      keccak256(0x00, 0x20)\n      add\n      0x00\n      swap2\n      pop\n      swap2\n      pop\n      pop\n      sload\n      dup2\n      jump\t// out\n        /* \"StakeMaster/stake.sol\":3440:4219  function reStake(address[] memory listAddress) public {... */\n    tag_87:\n        /* \"StakeMaster/stake.sol\":3559:3571  contractBary */\n      sload(0x06)\n        /* \"StakeMaster/stake.sol\":3647:3663  contractDefution */\n      sload(0x07)\n        /* \"StakeMaster/stake.sol\":3698:3778  contractBaryon.pendingReward(... */\n      mload(0x40)\n      shl(0xe1, 0x4c4b4f41)\n      dup2\n      mstore\n        /* \"StakeMaster/stake.sol\":3504:3537  IContractStakeBary contractBaryon */\n      0x00\n        /* \"StakeMaster/stake.sol\":3698:3778  contractBaryon.pendingReward(... */\n      0x04\n      dup3\n      add\n        /* \"#utility.yul\":6653:6678   */\n      dup2\n      swap1\n      mstore\n        /* \"StakeMaster/stake.sol\":3763:3767  this */\n      address\n        /* \"#utility.yul\":6694:6712   */\n      0x24\n      dup4\n      add\n        /* \"#utility.yul\":6687:6747   */\n      mstore\n      sub(shl(0xa0, 0x01), 0x01)\n        /* \"StakeMaster/stake.sol\":3559:3571  contractBary */\n      swap4\n      dup5\n      and\n      swap4\n        /* \"StakeMaster/stake.sol\":3647:3663  contractDefution */\n      swap1\n      swap3\n      and\n      swap2\n        /* \"StakeMaster/stake.sol\":3504:3537  IContractStakeBary contractBaryon */\n      swap1\n        /* \"StakeMaster/stake.sol\":3559:3571  contractBary */\n      dup4\n      swap1\n        /* \"StakeMaster/stake.sol\":3698:3726  contractBaryon.pendingReward */\n      0x98969e82\n      swap1\n        /* \"#utility.yul\":6626:6644   */\n      0x44\n      add\n        /* \"StakeMaster/stake.sol\":3698:3778  contractBaryon.pendingReward(... */\n      0x20\n      mload(0x40)\n      dup1\n      dup4\n      sub\n      dup2\n      dup7\n      gas\n      staticcall\n      iszero\n      dup1\n      iszero\n      tag_186\n      jumpi\n      returndatasize\n      0x00\n      dup1\n      returndatacopy\n      revert(0x00, returndatasize)\n    tag_186:\n      pop\n      pop\n      pop\n      pop\n      mload(0x40)\n      returndatasize\n      not(0x1f)\n      0x1f\n      dup3\n      add\n      and\n      dup3\n      add\n      dup1\n      0x40\n      mstore\n      pop\n      dup2\n      add\n      swap1\n      tag_187\n      swap2\n      swap1\n      tag_163\n      jump\t// in\n    tag_187:\n        /* \"StakeMaster/stake.sol\":3813:3864  contractDefusion.currentStakerReward(address(this)) */\n      mload(0x40)\n      shl(0xe0, 0x2b2b8415)\n      dup2\n      mstore\n        /* \"StakeMaster/stake.sol\":3858:3862  this */\n      address\n        /* \"StakeMaster/stake.sol\":3813:3864  contractDefusion.currentStakerReward(address(this)) */\n      0x04\n      dup3\n      add\n        /* \"#utility.yul\":3817:3868   */\n      mstore\n        /* \"StakeMaster/stake.sol\":3675:3778  uint256 rewardBaryon = contractBaryon.pendingReward(... */\n      swap1\n      swap2\n      pop\n        /* \"StakeMaster/stake.sol\":3788:3810  uint256 rewardDefusion */\n      0x00\n      swap1\n      sub(shl(0xa0, 0x01), 0x01)\n        /* \"StakeMaster/stake.sol\":3813:3849  contractDefusion.currentStakerReward */\n      dup5\n      and\n      swap1\n      0x2b2b8415\n      swap1\n        /* \"#utility.yul\":3790:3808   */\n      0x24\n      add\n        /* \"StakeMaster/stake.sol\":3813:3864  contractDefusion.currentStakerReward(address(this)) */\n      0x20\n      mload(0x40)\n      dup1\n      dup4\n      sub\n      dup2\n      dup7\n      gas\n      staticcall\n      iszero\n      dup1\n      iszero\n      tag_190\n      jumpi\n      returndatasize\n      0x00\n      dup1\n      returndatacopy\n      revert(0x00, returndatasize)\n    tag_190:\n      pop\n      pop\n      pop\n      pop\n      mload(0x40)\n      returndatasize\n      not(0x1f)\n      0x1f\n      dup3\n      add\n      and\n      dup3\n      add\n      dup1\n      0x40\n      mstore\n      pop\n      dup2\n      add\n      swap1\n      tag_191\n      swap2\n      swap1\n      tag_163\n      jump\t// in\n    tag_191:\n        /* \"StakeMaster/stake.sol\":3788:3864  uint256 rewardDefusion = contractDefusion.currentStakerReward(address(this)) */\n      swap1\n      pop\n        /* \"StakeMaster/stake.sol\":3875:3888  uint256 total */\n      0x00\n        /* \"StakeMaster/stake.sol\":3891:3920  rewardBaryon + rewardDefusion */\n      tag_192\n        /* \"StakeMaster/stake.sol\":3788:3864  uint256 rewardDefusion = contractDefusion.currentStakerReward(address(this)) */\n      dup3\n        /* \"StakeMaster/stake.sol\":3891:3903  rewardBaryon */\n      dup5\n        /* \"StakeMaster/stake.sol\":3891:3920  rewardBaryon + rewardDefusion */\n      tag_110\n      jump\t// in\n    tag_192:\n        /* \"StakeMaster/stake.sol\":3875:3920  uint256 total = rewardBaryon + rewardDefusion */\n      swap1\n      pop\n        /* \"StakeMaster/stake.sol\":3943:3945  10 */\n      0x0a\n        /* \"StakeMaster/stake.sol\":3935:3940  total */\n      dup2\n        /* \"StakeMaster/stake.sol\":3935:3945  total > 10 */\n      gt\n        /* \"StakeMaster/stake.sol\":3931:4056  if (total > 10) {... */\n      iszero\n      tag_193\n      jumpi\n        /* \"StakeMaster/stake.sol\":3961:3977  contractDefusion */\n      dup4\n      sub(shl(0xa0, 0x01), 0x01)\n        /* \"StakeMaster/stake.sol\":3961:3983  contractDefusion.stake */\n      and\n      0x3a4b66f1\n        /* \"StakeMaster/stake.sol\":3991:3996  total */\n      dup3\n        /* \"StakeMaster/stake.sol\":3961:3999  contractDefusion.stake{value: total}() */\n      mload(0x40)\n      dup3\n      0xffffffff\n      and\n      0xe0\n      shl\n      dup2\n      mstore\n      0x04\n      add\n      0x00\n      mload(0x40)\n      dup1\n      dup4\n      sub\n      dup2\n      dup6\n      dup9\n      dup1\n      extcodesize\n      iszero\n      dup1\n      iszero\n      tag_194\n      jumpi\n      0x00\n      dup1\n      revert\n    tag_194:\n      pop\n      gas\n      call\n      iszero\n      dup1\n      iszero\n      tag_196\n      jumpi\n      returndatasize\n      0x00\n      dup1\n      returndatacopy\n      revert(0x00, returndatasize)\n    tag_196:\n      pop\n      pop\n        /* \"StakeMaster/stake.sol\":4013:4045  contractBaryon.deposit(0, total) */\n      mload(0x40)\n      shl(0xe3, 0x1c57762b)\n      dup2\n      mstore\n        /* \"StakeMaster/stake.sol\":4036:4037  0 */\n      0x00\n        /* \"StakeMaster/stake.sol\":4013:4045  contractBaryon.deposit(0, total) */\n      0x04\n      dup3\n      add\n        /* \"#utility.yul\":3592:3617   */\n      mstore\n        /* \"#utility.yul\":3633:3651   */\n      0x24\n      dup2\n      add\n        /* \"#utility.yul\":3626:3660   */\n      dup6\n      swap1\n      mstore\n      sub(shl(0xa0, 0x01), 0x01)\n        /* \"StakeMaster/stake.sol\":4013:4035  contractBaryon.deposit */\n      dup10\n      and\n      swap4\n      pop\n      0xe2bbb158\n      swap3\n      pop\n        /* \"#utility.yul\":3565:3583   */\n      0x44\n      add\n      swap1\n      pop\n        /* \"StakeMaster/stake.sol\":4013:4045  contractBaryon.deposit(0, total) */\n      0x00\n      mload(0x40)\n      dup1\n      dup4\n      sub\n      dup2\n      0x00\n      dup8\n      dup1\n      extcodesize\n      iszero\n      dup1\n      iszero\n      tag_198\n      jumpi\n      0x00\n      dup1\n      revert\n    tag_198:\n      pop\n      gas\n      call\n      iszero\n      dup1\n      iszero\n      tag_200\n      jumpi\n      returndatasize\n      0x00\n      dup1\n      returndatacopy\n      revert(0x00, returndatasize)\n    tag_200:\n      pop\n      pop\n      pop\n      pop\n        /* \"StakeMaster/stake.sol\":3931:4056  if (total > 10) {... */\n    tag_193:\n        /* \"StakeMaster/stake.sol\":4070:4079  uint256 i */\n      0x00\n        /* \"StakeMaster/stake.sol\":4065:4213  for (uint256 i = 0; i < listAddress.length; i++) {... */\n    tag_201:\n        /* \"StakeMaster/stake.sol\":4089:4100  listAddress */\n      dup7\n        /* \"StakeMaster/stake.sol\":4089:4107  listAddress.length */\n      mload\n        /* \"StakeMaster/stake.sol\":4085:4086  i */\n      dup2\n        /* \"StakeMaster/stake.sol\":4085:4107  i < listAddress.length */\n      lt\n        /* \"StakeMaster/stake.sol\":4065:4213  for (uint256 i = 0; i < listAddress.length; i++) {... */\n      iszero\n      tag_202\n      jumpi\n        /* \"StakeMaster/stake.sol\":4178:4186  balances */\n      0x00\n        /* \"StakeMaster/stake.sol\":4178:4202  balances[listAddress[i]] */\n      dup1\n        /* \"StakeMaster/stake.sol\":4187:4198  listAddress */\n      dup9\n        /* \"StakeMaster/stake.sol\":4199:4200  i */\n      dup4\n        /* \"StakeMaster/stake.sol\":4187:4201  listAddress[i] */\n      dup2\n      mload\n      dup2\n      lt\n      tag_205\n      jumpi\n      tag_205\n      tag_131\n      jump\t// in\n    tag_205:\n      0x20\n      mul\n      0x20\n      add\n      add\n      mload\n      sub(shl(0xa0, 0x01), 0x01)\n        /* \"StakeMaster/stake.sol\":4178:4202  balances[listAddress[i]] */\n      and\n      sub(shl(0xa0, 0x01), 0x01)\n      and\n      dup2\n      mstore\n      0x20\n      add\n      swap1\n      dup2\n      mstore\n      0x20\n      add\n      0x00\n      keccak256\n      sload\n        /* \"StakeMaster/stake.sol\":4163:4175  totalBalance */\n      sload(0x04)\n        /* \"StakeMaster/stake.sol\":4155:4160  total */\n      dup4\n        /* \"StakeMaster/stake.sol\":4155:4175  total / totalBalance */\n      tag_206\n      swap2\n      swap1\n      tag_207\n      jump\t// in\n    tag_206:\n        /* \"StakeMaster/stake.sol\":4155:4202  total / totalBalance * balances[listAddress[i]] */\n      tag_208\n      swap2\n      swap1\n      tag_209\n      jump\t// in\n    tag_208:\n        /* \"StakeMaster/stake.sol\":4128:4135  rewards */\n      0x03\n        /* \"StakeMaster/stake.sol\":4128:4151  rewards[listAddress[i]] */\n      0x00\n        /* \"StakeMaster/stake.sol\":4136:4147  listAddress */\n      dup10\n        /* \"StakeMaster/stake.sol\":4148:4149  i */\n      dup5\n        /* \"StakeMaster/stake.sol\":4136:4150  listAddress[i] */\n      dup2\n      mload\n      dup2\n      lt\n      tag_211\n      jumpi\n      tag_211\n      tag_131\n      jump\t// in\n    tag_211:\n      0x20\n      mul\n      0x20\n      add\n      add\n      mload\n      sub(shl(0xa0, 0x01), 0x01)\n        /* \"StakeMaster/stake.sol\":4128:4151  rewards[listAddress[i]] */\n      and\n      sub(shl(0xa0, 0x01), 0x01)\n      and\n      dup2\n      mstore\n      0x20\n      add\n      swap1\n      dup2\n      mstore\n      0x20\n      add\n      0x00\n      keccak256\n      0x00\n        /* \"StakeMaster/stake.sol\":4128:4202  rewards[listAddress[i]] += total / totalBalance * balances[listAddress[i]] */\n      dup3\n      dup3\n      sload\n      tag_212\n      swap2\n      swap1\n      tag_110\n      jump\t// in\n    tag_212:\n      swap1\n      swap2\n      sstore\n      pop\n        /* \"StakeMaster/stake.sol\":4109:4112  i++ */\n      dup2\n      swap1\n      pop\n      tag_213\n      dup2\n      tag_214\n      jump\t// in\n    tag_213:\n      swap2\n      pop\n      pop\n        /* \"StakeMaster/stake.sol\":4065:4213  for (uint256 i = 0; i < listAddress.length; i++) {... */\n      jump(tag_201)\n    tag_202:\n      pop\n        /* \"StakeMaster/stake.sol\":3494:4219  {... */\n      pop\n      pop\n      pop\n      pop\n      pop\n        /* \"StakeMaster/stake.sol\":3440:4219  function reStake(address[] memory listAddress) public {... */\n      pop\n      jump\t// out\n        /* \"StakeMaster/stake.sol\":4360:4450  function harvestBary() public {... */\n    tag_90:\n        /* \"StakeMaster/stake.sol\":4419:4431  contractBary */\n      sload(0x06)\n        /* \"StakeMaster/stake.sol\":4400:4443  IContractStakeBary(contractBary).harvest(0) */\n      mload(0x40)\n      shl(0xe1, 0x6ee31931)\n      dup2\n      mstore\n        /* \"StakeMaster/stake.sol\":4419:4431  contractBary */\n      0x00\n        /* \"StakeMaster/stake.sol\":4400:4443  IContractStakeBary(contractBary).harvest(0) */\n      0x04\n      dup3\n      add\n        /* \"#utility.yul\":529:554   */\n      mstore\n      sub(shl(0xa0, 0x01), 0x01)\n        /* \"StakeMaster/stake.sol\":4419:4431  contractBary */\n      swap1\n      swap2\n      and\n      swap1\n        /* \"StakeMaster/stake.sol\":4400:4440  IContractStakeBary(contractBary).harvest */\n      0xddc63262\n      swap1\n        /* \"#utility.yul\":502:520   */\n      0x24\n      add\n        /* \"StakeMaster/stake.sol\":4400:4443  IContractStakeBary(contractBary).harvest(0) */\n      0x00\n      mload(0x40)\n      dup1\n      dup4\n      sub\n      dup2\n      0x00\n      dup8\n      dup1\n      extcodesize\n      iszero\n      dup1\n      iszero\n      tag_134\n      jumpi\n      0x00\n      dup1\n      revert\n        /* \"StakeMaster/stake.sol\":4981:5176  function withdrawUnstakedAmountDefu(... */\n    tag_94:\n        /* \"StakeMaster/stake.sol\":5093:5109  contractDefution */\n      sload(0x07)\n        /* \"StakeMaster/stake.sol\":5070:5169  IContractStakeDefusion(contractDefution).withdrawUnstakedAmount(... */\n      mload(0x40)\n      shl(0xe0, 0x9d59e1b9)\n      dup2\n      mstore\n      0x04\n      dup2\n      add\n        /* \"#utility.yul\":529:554   */\n      dup4\n      swap1\n      mstore\n      sub(shl(0xa0, 0x01), 0x01)\n        /* \"StakeMaster/stake.sol\":5093:5109  contractDefution */\n      swap1\n      swap2\n      and\n      swap1\n        /* \"StakeMaster/stake.sol\":5070:5133  IContractStakeDefusion(contractDefution).withdrawUnstakedAmount */\n      0x9d59e1b9\n      swap1\n        /* \"#utility.yul\":502:520   */\n      0x24\n      add\n        /* \"StakeMaster/stake.sol\":5070:5169  IContractStakeDefusion(contractDefution).withdrawUnstakedAmount(... */\n      tag_96\n        /* \"#utility.yul\":383:560   */\n      jump\n        /* \"#utility.yul\":14:187   */\n    tag_226:\n        /* \"#utility.yul\":82:102   */\n      dup1\n      calldataload\n      sub(shl(0xa0, 0x01), 0x01)\n        /* \"#utility.yul\":131:162   */\n      dup2\n      and\n        /* \"#utility.yul\":121:163   */\n      dup2\n      eq\n        /* \"#utility.yul\":111:181   */\n      tag_233\n      jumpi\n        /* \"#utility.yul\":177:178   */\n      0x00\n        /* \"#utility.yul\":174:175   */\n      dup1\n        /* \"#utility.yul\":167:179   */\n      revert\n        /* \"#utility.yul\":111:181   */\n    tag_233:\n        /* \"#utility.yul\":14:187   */\n      swap2\n      swap1\n      pop\n      jump\t// out\n        /* \"#utility.yul\":192:378   */\n    tag_25:\n        /* \"#utility.yul\":251:257   */\n      0x00\n        /* \"#utility.yul\":304:306   */\n      0x20\n        /* \"#utility.yul\":292:301   */\n      dup3\n        /* \"#utility.yul\":283:290   */\n      dup5\n        /* \"#utility.yul\":279:302   */\n      sub\n        /* \"#utility.yul\":275:307   */\n      slt\n        /* \"#utility.yul\":272:324   */\n      iszero\n      tag_235\n      jumpi\n        /* \"#utility.yul\":320:321   */\n      0x00\n        /* \"#utility.yul\":317:318   */\n      dup1\n        /* \"#utility.yul\":310:322   */\n      revert\n        /* \"#utility.yul\":272:324   */\n    tag_235:\n        /* \"#utility.yul\":343:372   */\n      tag_236\n        /* \"#utility.yul\":362:371   */\n      dup3\n        /* \"#utility.yul\":343:372   */\n      tag_226\n      jump\t// in\n    tag_236:\n        /* \"#utility.yul\":333:372   */\n      swap4\n        /* \"#utility.yul\":192:378   */\n      swap3\n      pop\n      pop\n      pop\n      jump\t// out\n        /* \"#utility.yul\":565:745   */\n    tag_32:\n        /* \"#utility.yul\":624:630   */\n      0x00\n        /* \"#utility.yul\":677:679   */\n      0x20\n        /* \"#utility.yul\":665:674   */\n      dup3\n        /* \"#utility.yul\":656:663   */\n      dup5\n        /* \"#utility.yul\":652:675   */\n      sub\n        /* \"#utility.yul\":648:680   */\n      slt\n        /* \"#utility.yul\":645:697   */\n      iszero\n      tag_239\n      jumpi\n        /* \"#utility.yul\":693:694   */\n      0x00\n        /* \"#utility.yul\":690:691   */\n      dup1\n        /* \"#utility.yul\":683:695   */\n      revert\n        /* \"#utility.yul\":645:697   */\n    tag_239:\n      pop\n        /* \"#utility.yul\":716:739   */\n      calldataload\n      swap2\n        /* \"#utility.yul\":565:745   */\n      swap1\n      pop\n      jump\t// out\n        /* \"#utility.yul\":750:1382   */\n    tag_44:\n        /* \"#utility.yul\":921:923   */\n      0x20\n        /* \"#utility.yul\":973:994   */\n      dup1\n      dup3\n      mstore\n        /* \"#utility.yul\":1043:1056   */\n      dup3\n      mload\n        /* \"#utility.yul\":946:964   */\n      dup3\n      dup3\n      add\n        /* \"#utility.yul\":1065:1087   */\n      dup2\n      swap1\n      mstore\n        /* \"#utility.yul\":892:896   */\n      0x00\n      swap2\n        /* \"#utility.yul\":921:923   */\n      swap1\n        /* \"#utility.yul\":1144:1159   */\n      dup5\n      dup3\n      add\n      swap1\n        /* \"#utility.yul\":1118:1120   */\n      0x40\n        /* \"#utility.yul\":1103:1121   */\n      dup6\n      add\n      swap1\n        /* \"#utility.yul\":892:896   */\n      dup5\n        /* \"#utility.yul\":1187:1356   */\n    tag_241:\n        /* \"#utility.yul\":1201:1207   */\n      dup2\n        /* \"#utility.yul\":1198:1199   */\n      dup2\n        /* \"#utility.yul\":1195:1208   */\n      lt\n        /* \"#utility.yul\":1187:1356   */\n      iszero\n      tag_243\n      jumpi\n        /* \"#utility.yul\":1262:1275   */\n      dup4\n      mload\n        /* \"#utility.yul\":1250:1276   */\n      dup4\n      mstore\n        /* \"#utility.yul\":1331:1346   */\n      swap3\n      dup5\n      add\n      swap3\n        /* \"#utility.yul\":1296:1308   */\n      swap2\n      dup5\n      add\n      swap2\n        /* \"#utility.yul\":1223:1224   */\n      0x01\n        /* \"#utility.yul\":1216:1225   */\n      add\n        /* \"#utility.yul\":1187:1356   */\n      jump(tag_241)\n    tag_243:\n      pop\n        /* \"#utility.yul\":1373:1376   */\n      swap1\n      swap7\n        /* \"#utility.yul\":750:1382   */\n      swap6\n      pop\n      pop\n      pop\n      pop\n      pop\n      pop\n      jump\t// out\n        /* \"#utility.yul\":1387:1641   */\n    tag_80:\n        /* \"#utility.yul\":1455:1461   */\n      0x00\n        /* \"#utility.yul\":1463:1469   */\n      dup1\n        /* \"#utility.yul\":1516:1518   */\n      0x40\n        /* \"#utility.yul\":1504:1513   */\n      dup4\n        /* \"#utility.yul\":1495:1502   */\n      dup6\n        /* \"#utility.yul\":1491:1514   */\n      sub\n        /* \"#utility.yul\":1487:1519   */\n      slt\n        /* \"#utility.yul\":1484:1536   */\n      iszero\n      tag_245\n      jumpi\n        /* \"#utility.yul\":1532:1533   */\n      0x00\n        /* \"#utility.yul\":1529:1530   */\n      dup1\n        /* \"#utility.yul\":1522:1534   */\n      revert\n        /* \"#utility.yul\":1484:1536   */\n    tag_245:\n        /* \"#utility.yul\":1555:1584   */\n      tag_246\n        /* \"#utility.yul\":1574:1583   */\n      dup4\n        /* \"#utility.yul\":1555:1584   */\n      tag_226\n      jump\t// in\n    tag_246:\n        /* \"#utility.yul\":1545:1584   */\n      swap5\n        /* \"#utility.yul\":1631:1633   */\n      0x20\n        /* \"#utility.yul\":1616:1634   */\n      swap4\n      swap1\n      swap4\n      add\n        /* \"#utility.yul\":1603:1635   */\n      calldataload\n      swap4\n      pop\n      pop\n      pop\n        /* \"#utility.yul\":1387:1641   */\n      jump\t// out\n        /* \"#utility.yul\":1646:1773   */\n    tag_227:\n        /* \"#utility.yul\":1707:1717   */\n      0x4e487b71\n        /* \"#utility.yul\":1702:1705   */\n      0xe0\n        /* \"#utility.yul\":1698:1718   */\n      shl\n        /* \"#utility.yul\":1695:1696   */\n      0x00\n        /* \"#utility.yul\":1688:1719   */\n      mstore\n        /* \"#utility.yul\":1738:1742   */\n      0x41\n        /* \"#utility.yul\":1735:1736   */\n      0x04\n        /* \"#utility.yul\":1728:1743   */\n      mstore\n        /* \"#utility.yul\":1762:1766   */\n      0x24\n        /* \"#utility.yul\":1759:1760   */\n      0x00\n        /* \"#utility.yul\":1752:1767   */\n      revert\n        /* \"#utility.yul\":1778:2053   */\n    tag_228:\n        /* \"#utility.yul\":1849:1851   */\n      0x40\n        /* \"#utility.yul\":1843:1852   */\n      mload\n        /* \"#utility.yul\":1914:1916   */\n      0x1f\n        /* \"#utility.yul\":1895:1908   */\n      dup3\n      add\n      not(0x1f)\n        /* \"#utility.yul\":1891:1918   */\n      and\n        /* \"#utility.yul\":1879:1919   */\n      dup2\n      add\n        /* \"#utility.yul\":1949:1967   */\n      0xffffffffffffffff\n        /* \"#utility.yul\":1934:1968   */\n      dup2\n      gt\n        /* \"#utility.yul\":1970:1992   */\n      dup3\n      dup3\n      lt\n        /* \"#utility.yul\":1931:1993   */\n      or\n        /* \"#utility.yul\":1928:2016   */\n      iszero\n      tag_250\n      jumpi\n        /* \"#utility.yul\":1996:2014   */\n      tag_250\n      tag_227\n      jump\t// in\n    tag_250:\n        /* \"#utility.yul\":2032:2034   */\n      0x40\n        /* \"#utility.yul\":2025:2047   */\n      mstore\n        /* \"#utility.yul\":1778:2053   */\n      swap2\n      swap1\n      pop\n      jump\t// out\n        /* \"#utility.yul\":2058:2241   */\n    tag_229:\n        /* \"#utility.yul\":2118:2122   */\n      0x00\n        /* \"#utility.yul\":2151:2169   */\n      0xffffffffffffffff\n        /* \"#utility.yul\":2143:2149   */\n      dup3\n        /* \"#utility.yul\":2140:2170   */\n      gt\n        /* \"#utility.yul\":2137:2193   */\n      iszero\n      tag_253\n      jumpi\n        /* \"#utility.yul\":2173:2191   */\n      tag_253\n      tag_227\n      jump\t// in\n    tag_253:\n      pop\n        /* \"#utility.yul\":2218:2219   */\n      0x05\n        /* \"#utility.yul\":2214:2228   */\n      shl\n        /* \"#utility.yul\":2230:2234   */\n      0x20\n        /* \"#utility.yul\":2210:2235   */\n      add\n      swap1\n        /* \"#utility.yul\":2058:2241   */\n      jump\t// out\n        /* \"#utility.yul\":2246:3143   */\n    tag_86:\n        /* \"#utility.yul\":2330:2336   */\n      0x00\n        /* \"#utility.yul\":2361:2363   */\n      0x20\n        /* \"#utility.yul\":2404:2406   */\n      dup1\n        /* \"#utility.yul\":2392:2401   */\n      dup4\n        /* \"#utility.yul\":2383:2390   */\n      dup6\n        /* \"#utility.yul\":2379:2402   */\n      sub\n        /* \"#utility.yul\":2375:2407   */\n      slt\n        /* \"#utility.yul\":2372:2424   */\n      iszero\n      tag_255\n      jumpi\n        /* \"#utility.yul\":2420:2421   */\n      0x00\n        /* \"#utility.yul\":2417:2418   */\n      dup1\n        /* \"#utility.yul\":2410:2422   */\n      revert\n        /* \"#utility.yul\":2372:2424   */\n    tag_255:\n        /* \"#utility.yul\":2460:2469   */\n      dup3\n        /* \"#utility.yul\":2447:2470   */\n      calldataload\n        /* \"#utility.yul\":2493:2511   */\n      0xffffffffffffffff\n        /* \"#utility.yul\":2485:2491   */\n      dup2\n        /* \"#utility.yul\":2482:2512   */\n      gt\n        /* \"#utility.yul\":2479:2529   */\n      iszero\n      tag_256\n      jumpi\n        /* \"#utility.yul\":2525:2526   */\n      0x00\n        /* \"#utility.yul\":2522:2523   */\n      dup1\n        /* \"#utility.yul\":2515:2527   */\n      revert\n        /* \"#utility.yul\":2479:2529   */\n    tag_256:\n        /* \"#utility.yul\":2548:2570   */\n      dup4\n      add\n        /* \"#utility.yul\":2601:2605   */\n      0x1f\n        /* \"#utility.yul\":2593:2606   */\n      dup2\n      add\n        /* \"#utility.yul\":2589:2616   */\n      dup6\n      sgt\n        /* \"#utility.yul\":2579:2634   */\n      tag_257\n      jumpi\n        /* \"#utility.yul\":2630:2631   */\n      0x00\n        /* \"#utility.yul\":2627:2628   */\n      dup1\n        /* \"#utility.yul\":2620:2632   */\n      revert\n        /* \"#utility.yul\":2579:2634   */\n    tag_257:\n        /* \"#utility.yul\":2666:2668   */\n      dup1\n        /* \"#utility.yul\":2653:2669   */\n      calldataload\n        /* \"#utility.yul\":2689:2749   */\n      tag_258\n        /* \"#utility.yul\":2705:2748   */\n      tag_259\n        /* \"#utility.yul\":2745:2747   */\n      dup3\n        /* \"#utility.yul\":2705:2748   */\n      tag_229\n      jump\t// in\n    tag_259:\n        /* \"#utility.yul\":2689:2749   */\n      tag_228\n      jump\t// in\n    tag_258:\n        /* \"#utility.yul\":2783:2798   */\n      dup2\n      dup2\n      mstore\n        /* \"#utility.yul\":2865:2866   */\n      0x05\n        /* \"#utility.yul\":2861:2871   */\n      swap2\n      swap1\n      swap2\n      shl\n        /* \"#utility.yul\":2853:2872   */\n      dup3\n      add\n        /* \"#utility.yul\":2849:2877   */\n      dup4\n      add\n      swap1\n        /* \"#utility.yul\":2814:2826   */\n      dup4\n      dup2\n      add\n      swap1\n        /* \"#utility.yul\":2889:2908   */\n      dup8\n      dup4\n      gt\n        /* \"#utility.yul\":2886:2925   */\n      iszero\n      tag_260\n      jumpi\n        /* \"#utility.yul\":2921:2922   */\n      0x00\n        /* \"#utility.yul\":2918:2919   */\n      dup1\n        /* \"#utility.yul\":2911:2923   */\n      revert\n        /* \"#utility.yul\":2886:2925   */\n    tag_260:\n        /* \"#utility.yul\":2945:2956   */\n      swap3\n      dup5\n      add\n      swap3\n        /* \"#utility.yul\":2965:3113   */\n    tag_261:\n        /* \"#utility.yul\":2981:2987   */\n      dup3\n        /* \"#utility.yul\":2976:2979   */\n      dup5\n        /* \"#utility.yul\":2973:2988   */\n      lt\n        /* \"#utility.yul\":2965:3113   */\n      iszero\n      tag_263\n      jumpi\n        /* \"#utility.yul\":3047:3070   */\n      tag_264\n        /* \"#utility.yul\":3066:3069   */\n      dup5\n        /* \"#utility.yul\":3047:3070   */\n      tag_226\n      jump\t// in\n    tag_264:\n        /* \"#utility.yul\":3035:3071   */\n      dup3\n      mstore\n        /* \"#utility.yul\":2998:3010   */\n      swap3\n      dup5\n      add\n      swap3\n        /* \"#utility.yul\":3091:3103   */\n      swap1\n      dup5\n      add\n      swap1\n        /* \"#utility.yul\":2965:3113   */\n      jump(tag_261)\n    tag_263:\n        /* \"#utility.yul\":3132:3137   */\n      swap8\n        /* \"#utility.yul\":2246:3143   */\n      swap7\n      pop\n      pop\n      pop\n      pop\n      pop\n      pop\n      pop\n      jump\t// out\n        /* \"#utility.yul\":3148:3275   */\n    tag_230:\n        /* \"#utility.yul\":3209:3219   */\n      0x4e487b71\n        /* \"#utility.yul\":3204:3207   */\n      0xe0\n        /* \"#utility.yul\":3200:3220   */\n      shl\n        /* \"#utility.yul\":3197:3198   */\n      0x00\n        /* \"#utility.yul\":3190:3221   */\n      mstore\n        /* \"#utility.yul\":3240:3244   */\n      0x11\n        /* \"#utility.yul\":3237:3238   */\n      0x04\n        /* \"#utility.yul\":3230:3245   */\n      mstore\n        /* \"#utility.yul\":3264:3268   */\n      0x24\n        /* \"#utility.yul\":3261:3262   */\n      0x00\n        /* \"#utility.yul\":3254:3269   */\n      revert\n        /* \"#utility.yul\":3280:3405   */\n    tag_110:\n        /* \"#utility.yul\":3345:3354   */\n      dup1\n      dup3\n      add\n        /* \"#utility.yul\":3366:3376   */\n      dup1\n      dup3\n      gt\n        /* \"#utility.yul\":3363:3399   */\n      iszero\n      tag_268\n      jumpi\n        /* \"#utility.yul\":3379:3397   */\n      tag_268\n      tag_230\n      jump\t// in\n    tag_268:\n        /* \"#utility.yul\":3280:3405   */\n      swap3\n      swap2\n      pop\n      pop\n      jump\t// out\n        /* \"#utility.yul\":3879:4760   */\n    tag_125:\n        /* \"#utility.yul\":3974:3980   */\n      0x00\n        /* \"#utility.yul\":4005:4007   */\n      0x20\n        /* \"#utility.yul\":4048:4050   */\n      dup1\n        /* \"#utility.yul\":4036:4045   */\n      dup4\n        /* \"#utility.yul\":4027:4034   */\n      dup6\n        /* \"#utility.yul\":4023:4046   */\n      sub\n        /* \"#utility.yul\":4019:4051   */\n      slt\n        /* \"#utility.yul\":4016:4068   */\n      iszero\n      tag_272\n      jumpi\n        /* \"#utility.yul\":4064:4065   */\n      0x00\n        /* \"#utility.yul\":4061:4062   */\n      dup1\n        /* \"#utility.yul\":4054:4066   */\n      revert\n        /* \"#utility.yul\":4016:4068   */\n    tag_272:\n        /* \"#utility.yul\":4097:4106   */\n      dup3\n        /* \"#utility.yul\":4091:4107   */\n      mload\n        /* \"#utility.yul\":4130:4148   */\n      0xffffffffffffffff\n        /* \"#utility.yul\":4122:4128   */\n      dup2\n        /* \"#utility.yul\":4119:4149   */\n      gt\n        /* \"#utility.yul\":4116:4166   */\n      iszero\n      tag_273\n      jumpi\n        /* \"#utility.yul\":4162:4163   */\n      0x00\n        /* \"#utility.yul\":4159:4160   */\n      dup1\n        /* \"#utility.yul\":4152:4164   */\n      revert\n        /* \"#utility.yul\":4116:4166   */\n    tag_273:\n        /* \"#utility.yul\":4185:4207   */\n      dup4\n      add\n        /* \"#utility.yul\":4238:4242   */\n      0x1f\n        /* \"#utility.yul\":4230:4243   */\n      dup2\n      add\n        /* \"#utility.yul\":4226:4253   */\n      dup6\n      sgt\n        /* \"#utility.yul\":4216:4271   */\n      tag_274\n      jumpi\n        /* \"#utility.yul\":4267:4268   */\n      0x00\n        /* \"#utility.yul\":4264:4265   */\n      dup1\n        /* \"#utility.yul\":4257:4269   */\n      revert\n        /* \"#utility.yul\":4216:4271   */\n    tag_274:\n        /* \"#utility.yul\":4296:4298   */\n      dup1\n        /* \"#utility.yul\":4290:4299   */\n      mload\n        /* \"#utility.yul\":4319:4379   */\n      tag_275\n        /* \"#utility.yul\":4335:4378   */\n      tag_259\n        /* \"#utility.yul\":4375:4377   */\n      dup3\n        /* \"#utility.yul\":4335:4378   */\n      tag_229\n      jump\t// in\n        /* \"#utility.yul\":4319:4379   */\n    tag_275:\n        /* \"#utility.yul\":4413:4428   */\n      dup2\n      dup2\n      mstore\n        /* \"#utility.yul\":4495:4496   */\n      0x05\n        /* \"#utility.yul\":4491:4501   */\n      swap2\n      swap1\n      swap2\n      shl\n        /* \"#utility.yul\":4483:4502   */\n      dup3\n      add\n        /* \"#utility.yul\":4479:4507   */\n      dup4\n      add\n      swap1\n        /* \"#utility.yul\":4444:4456   */\n      dup4\n      dup2\n      add\n      swap1\n        /* \"#utility.yul\":4519:4538   */\n      dup8\n      dup4\n      gt\n        /* \"#utility.yul\":4516:4555   */\n      iszero\n      tag_277\n      jumpi\n        /* \"#utility.yul\":4551:4552   */\n      0x00\n        /* \"#utility.yul\":4548:4549   */\n      dup1\n        /* \"#utility.yul\":4541:4553   */\n      revert\n        /* \"#utility.yul\":4516:4555   */\n    tag_277:\n        /* \"#utility.yul\":4575:4586   */\n      swap3\n      dup5\n      add\n      swap3\n        /* \"#utility.yul\":4595:4730   */\n    tag_278:\n        /* \"#utility.yul\":4611:4617   */\n      dup3\n        /* \"#utility.yul\":4606:4609   */\n      dup5\n        /* \"#utility.yul\":4603:4618   */\n      lt\n        /* \"#utility.yul\":4595:4730   */\n      iszero\n      tag_263\n      jumpi\n        /* \"#utility.yul\":4677:4687   */\n      dup4\n      mload\n        /* \"#utility.yul\":4665:4688   */\n      dup3\n      mstore\n        /* \"#utility.yul\":4628:4640   */\n      swap3\n      dup5\n      add\n      swap3\n        /* \"#utility.yul\":4708:4720   */\n      swap1\n      dup5\n      add\n      swap1\n        /* \"#utility.yul\":4595:4730   */\n      jump(tag_278)\n        /* \"#utility.yul\":4765:4893   */\n    tag_128:\n        /* \"#utility.yul\":4832:4841   */\n      dup2\n      dup2\n      sub\n        /* \"#utility.yul\":4853:4864   */\n      dup2\n      dup2\n      gt\n        /* \"#utility.yul\":4850:4887   */\n      iszero\n      tag_268\n      jumpi\n        /* \"#utility.yul\":4867:4885   */\n      tag_268\n      tag_230\n      jump\t// in\n        /* \"#utility.yul\":4898:5025   */\n    tag_131:\n        /* \"#utility.yul\":4959:4969   */\n      0x4e487b71\n        /* \"#utility.yul\":4954:4957   */\n      0xe0\n        /* \"#utility.yul\":4950:4970   */\n      shl\n        /* \"#utility.yul\":4947:4948   */\n      0x00\n        /* \"#utility.yul\":4940:4971   */\n      mstore\n        /* \"#utility.yul\":4990:4994   */\n      0x32\n        /* \"#utility.yul\":4987:4988   */\n      0x04\n        /* \"#utility.yul\":4980:4995   */\n      mstore\n        /* \"#utility.yul\":5014:5018   */\n      0x24\n        /* \"#utility.yul\":5011:5012   */\n      0x00\n        /* \"#utility.yul\":5004:5019   */\n      revert\n        /* \"#utility.yul\":5675:5859   */\n    tag_163:\n        /* \"#utility.yul\":5745:5751   */\n      0x00\n        /* \"#utility.yul\":5798:5800   */\n      0x20\n        /* \"#utility.yul\":5786:5795   */\n      dup3\n        /* \"#utility.yul\":5777:5784   */\n      dup5\n        /* \"#utility.yul\":5773:5796   */\n      sub\n        /* \"#utility.yul\":5769:5801   */\n      slt\n        /* \"#utility.yul\":5766:5818   */\n      iszero\n      tag_288\n      jumpi\n        /* \"#utility.yul\":5814:5815   */\n      0x00\n        /* \"#utility.yul\":5811:5812   */\n      dup1\n        /* \"#utility.yul\":5804:5816   */\n      revert\n        /* \"#utility.yul\":5766:5818   */\n    tag_288:\n      pop\n        /* \"#utility.yul\":5837:5853   */\n      mload\n      swap2\n        /* \"#utility.yul\":5675:5859   */\n      swap1\n      pop\n      jump\t// out\n        /* \"#utility.yul\":6189:6466   */\n    tag_170:\n        /* \"#utility.yul\":6256:6262   */\n      0x00\n        /* \"#utility.yul\":6309:6311   */\n      0x20\n        /* \"#utility.yul\":6297:6306   */\n      dup3\n        /* \"#utility.yul\":6288:6295   */\n      dup5\n        /* \"#utility.yul\":6284:6307   */\n      sub\n        /* \"#utility.yul\":6280:6312   */\n      slt\n        /* \"#utility.yul\":6277:6329   */\n      iszero\n      tag_291\n      jumpi\n        /* \"#utility.yul\":6325:6326   */\n      0x00\n        /* \"#utility.yul\":6322:6323   */\n      dup1\n        /* \"#utility.yul\":6315:6327   */\n      revert\n        /* \"#utility.yul\":6277:6329   */\n    tag_291:\n        /* \"#utility.yul\":6357:6366   */\n      dup2\n        /* \"#utility.yul\":6351:6367   */\n      mload\n        /* \"#utility.yul\":6410:6415   */\n      dup1\n        /* \"#utility.yul\":6403:6416   */\n      iszero\n        /* \"#utility.yul\":6396:6417   */\n      iszero\n        /* \"#utility.yul\":6389:6394   */\n      dup2\n        /* \"#utility.yul\":6386:6418   */\n      eq\n        /* \"#utility.yul\":6376:6436   */\n      tag_236\n      jumpi\n        /* \"#utility.yul\":6432:6433   */\n      0x00\n        /* \"#utility.yul\":6429:6430   */\n      dup1\n        /* \"#utility.yul\":6422:6434   */\n      revert\n        /* \"#utility.yul\":6758:6975   */\n    tag_207:\n        /* \"#utility.yul\":6798:6799   */\n      0x00\n        /* \"#utility.yul\":6824:6825   */\n      dup3\n        /* \"#utility.yul\":6814:6946   */\n      tag_295\n      jumpi\n        /* \"#utility.yul\":6868:6878   */\n      0x4e487b71\n        /* \"#utility.yul\":6863:6866   */\n      0xe0\n        /* \"#utility.yul\":6859:6879   */\n      shl\n        /* \"#utility.yul\":6856:6857   */\n      0x00\n        /* \"#utility.yul\":6849:6880   */\n      mstore\n        /* \"#utility.yul\":6903:6907   */\n      0x12\n        /* \"#utility.yul\":6900:6901   */\n      0x04\n        /* \"#utility.yul\":6893:6908   */\n      mstore\n        /* \"#utility.yul\":6931:6935   */\n      0x24\n        /* \"#utility.yul\":6928:6929   */\n      0x00\n        /* \"#utility.yul\":6921:6936   */\n      revert\n        /* \"#utility.yul\":6814:6946   */\n    tag_295:\n      pop\n        /* \"#utility.yul\":6960:6969   */\n      div\n      swap1\n        /* \"#utility.yul\":6758:6975   */\n      jump\t// out\n        /* \"#utility.yul\":6980:7148   */\n    tag_209:\n        /* \"#utility.yul\":7053:7062   */\n      dup1\n      dup3\n      mul\n        /* \"#utility.yul\":7084:7093   */\n      dup2\n      iszero\n        /* \"#utility.yul\":7101:7116   */\n      dup3\n      dup3\n      div\n        /* \"#utility.yul\":7095:7117   */\n      dup5\n      eq\n        /* \"#utility.yul\":7081:7118   */\n      or\n        /* \"#utility.yul\":7071:7142   */\n      tag_268\n      jumpi\n        /* \"#utility.yul\":7122:7140   */\n      tag_268\n      tag_230\n      jump\t// in\n        /* \"#utility.yul\":7153:7288   */\n    tag_214:\n        /* \"#utility.yul\":7192:7195   */\n      0x00\n        /* \"#utility.yul\":7213:7230   */\n      0x01\n      dup3\n      add\n        /* \"#utility.yul\":7210:7253   */\n      tag_301\n      jumpi\n        /* \"#utility.yul\":7233:7251   */\n      tag_301\n      tag_230\n      jump\t// in\n    tag_301:\n      pop\n        /* \"#utility.yul\":7280:7281   */\n      0x01\n        /* \"#utility.yul\":7269:7282   */\n      add\n      swap1\n        /* \"#utility.yul\":7153:7288   */\n      jump\t// out\n\n    auxdata: 0xa2646970667358221220358113889a27111b9784eaccbb6ed005f0cc553c7f10ab357419cc0853382c8064736f6c63430008110033\n}\n",
				"bytecode": {
					"linkReferences": {},
					"object": "6080604052600580546001600160a01b031990811673cdde1f5d971a369eb952192f9a5c367f33a0a89117909155600680548216730afdbe5989cab06e66244cc2583f0caeecb6ea8e17905560078054909116736d2b2e6ff4d7614994a4314d492207b6342b102917905534801561007657600080fd5b506110ac806100866000396000f3fe6080604052600436106100fe5760003560e01c80636139f15811610095578063d0e30db011610064578063d0e30db01461028c578063d2e3663e14610294578063ea77278c146102b4578063f81e4685146102d4578063fbcda19a146102e957600080fd5b80636139f15814610236578063ad7a672f14610256578063ba46a6e21461026c578063bff28a23146101f457600080fd5b80632e585fd8116100d15780632e585fd8146101bf5780633ccfd60b146101df5780634321b1c0146101f457806356d6ea4f1461020957600080fd5b80630700037d1461010357806323b3b9e01461014357806327e235e3146101655780632de9269e14610192575b600080fd5b34801561010f57600080fd5b5061013061011e366004610d5a565b60036020526000908152604090205481565b6040519081526020015b60405180910390f35b34801561014f57600080fd5b5061016361015e366004610d7c565b610309565b005b34801561017157600080fd5b50610130610180366004610d5a565b60006020819052908152604090205481565b34801561019e57600080fd5b506101b26101ad366004610d5a565b61036b565b60405161013a9190610d95565b3480156101cb57600080fd5b506101636101da366004610d7c565b6103d7565b3480156101eb57600080fd5b50610163610448565b34801561020057600080fd5b50610163610640565b34801561021557600080fd5b50610130610224366004610d5a565b60016020526000908152604090205481565b34801561024257600080fd5b50610163610251366004610d5a565b6106aa565b34801561026257600080fd5b5061013060045481565b34801561027857600080fd5b50610163610287366004610d7c565b610720565b610163610758565b3480156102a057600080fd5b506101306102af366004610dd9565b610a09565b3480156102c057600080fd5b506101636102cf366004610e6e565b610a3a565b3480156102e057600080fd5b50610163610cc7565b3480156102f557600080fd5b50610163610304366004610d7c565b610d0d565b6007546040516305c2fbcf60e31b8152600481018390526001600160a01b0390911690632e17de78906024015b600060405180830381600087803b15801561035057600080fd5b505af1158015610364573d6000803e3d6000fd5b5050505050565b6001600160a01b0381166000908152600260209081526040918290208054835181840281018401909452808452606093928301828280156103cb57602002820191906000526020600020905b8154815260200190600101908083116103b7575b50505050509050919050565b600754604051639d59e1b960e01b8152600481018390526001600160a01b0390911690639d59e1b990602401600060405180830381600087803b15801561041d57600080fd5b505af1158015610431573d6000803e3d6000fd5b505033600090815260016020526040812055505050565b336000908152600360209081526040808320543084529183905282205461046f9190610f21565b60065460405163348b597f60e01b815260006004820152602481018390529192506001600160a01b03169063348b597f90604401600060405180830381600087803b1580156104bd57600080fd5b505af11580156104d1573d6000803e3d6000fd5b50506007546040516305c2fbcf60e31b8152600481018590526001600160a01b039091169250632e17de789150602401600060405180830381600087803b15801561051b57600080fd5b505af115801561052f573d6000803e3d6000fd5b505060075460405163acc77b8760e01b8152306004820152600093506001600160a01b03909116915063acc77b8790602401600060405180830381865afa15801561057e573d6000803e3d6000fd5b505050506040513d6000823e601f3d908101601f191682016040526105a69190810190610f3a565b336000908152602081815260408083205460019092528220805493945090929091906105d3908490610f21565b909155505033600090815260208181526040808320839055600290915290208151829061060290600190610fc0565b8151811061061257610612610fd3565b6020908102919091018101518254600181018455600093845282842001553382526003905260408120555050565b600760009054906101000a90046001600160a01b03166001600160a01b031663c885bc586040518163ffffffff1660e01b8152600401600060405180830381600087803b15801561069057600080fd5b505af11580156106a4573d6000803e3d6000fd5b50505050565b60075460405163acc77b8760e01b81526001600160a01b0383811660048301529091169063acc77b8790602401600060405180830381865afa1580156106f4573d6000803e3d6000fd5b505050506040513d6000823e601f3d908101601f1916820160405261071c9190810190610f3a565b5050565b60065460405163348b597f60e01b815260006004820152602481018390526001600160a01b039091169063348b597f90604401610336565b600a34116107975760405162461bcd60e51b81526020600482015260086024820152670766963203e2031360c41b604482015260640160405180910390fd5b600760009054906101000a90046001600160a01b03166001600160a01b0316633a4b66f1346040518263ffffffff1660e01b81526004016000604051808303818588803b1580156107e757600080fd5b505af11580156107fb573d6000803e3d6000fd5b5050600554600654604051636eb1769f60e11b81523060048201526001600160a01b039182166024820152600095509116925063dd62ed3e9150604401602060405180830381865afa158015610855573d6000803e3d6000fd5b505050506040513d601f19601f820116820180604052508101906108799190610fe9565b90508060000361090d5760055460065460405163095ea7b360e01b81526001600160a01b0391821660048201526f4b3b4ca85ada522da6eccabc8fd19389602482015291169063095ea7b3906044016020604051808303816000875af11580156108e7573d6000803e3d6000fd5b505050506040513d601f19601f8201168201806040525081019061090b9190611002565b505b6005546040516370a0823160e01b81523060048201526000916001600160a01b0316906370a0823190602401602060405180830381865afa158015610956573d6000803e3d6000fd5b505050506040513d601f19601f8201168201806040525081019061097a9190610fe9565b600654604051631c57762b60e31b815260006004820152602481018390529192506001600160a01b03169063e2bbb15890604401600060405180830381600087803b1580156109c857600080fd5b505af11580156109dc573d6000803e3d6000fd5b50503360009081526020819052604081208054349450909250610a00908490610f21565b90915550505050565b60026020528160005260406000208181548110610a2557600080fd5b90600052602060002001600091509150505481565b600654600754604051634c4b4f4160e11b81526000600482018190523060248301526001600160a01b0393841693909216919083906398969e8290604401602060405180830381865afa158015610a95573d6000803e3d6000fd5b505050506040513d601f19601f82011682018060405250810190610ab99190610fe9565b604051632b2b841560e01b81523060048201529091506000906001600160a01b03841690632b2b841590602401602060405180830381865afa158015610b03573d6000803e3d6000fd5b505050506040513d601f19601f82011682018060405250810190610b279190610fe9565b90506000610b358284610f21565b9050600a811115610bf757836001600160a01b0316633a4b66f1826040518263ffffffff1660e01b81526004016000604051808303818588803b158015610b7b57600080fd5b505af1158015610b8f573d6000803e3d6000fd5b5050604051631c57762b60e31b815260006004820152602481018590526001600160a01b038916935063e2bbb15892506044019050600060405180830381600087803b158015610bde57600080fd5b505af1158015610bf2573d6000803e3d6000fd5b505050505b60005b8651811015610cbe57600080888381518110610c1857610c18610fd3565b60200260200101516001600160a01b03166001600160a01b031681526020019081526020016000205460045483610c4f9190611024565b610c599190611046565b60036000898481518110610c6f57610c6f610fd3565b60200260200101516001600160a01b03166001600160a01b031681526020019081526020016000206000828254610ca69190610f21565b90915550819050610cb68161105d565b915050610bfa565b50505050505050565b600654604051636ee3193160e11b8152600060048201526001600160a01b039091169063ddc6326290602401600060405180830381600087803b15801561069057600080fd5b600754604051639d59e1b960e01b8152600481018390526001600160a01b0390911690639d59e1b990602401610336565b80356001600160a01b0381168114610d5557600080fd5b919050565b600060208284031215610d6c57600080fd5b610d7582610d3e565b9392505050565b600060208284031215610d8e57600080fd5b5035919050565b6020808252825182820181905260009190848201906040850190845b81811015610dcd57835183529284019291840191600101610db1565b50909695505050505050565b60008060408385031215610dec57600080fd5b610df583610d3e565b946020939093013593505050565b634e487b7160e01b600052604160045260246000fd5b604051601f8201601f1916810167ffffffffffffffff81118282101715610e4257610e42610e03565b604052919050565b600067ffffffffffffffff821115610e6457610e64610e03565b5060051b60200190565b60006020808385031215610e8157600080fd5b823567ffffffffffffffff811115610e9857600080fd5b8301601f81018513610ea957600080fd5b8035610ebc610eb782610e4a565b610e19565b81815260059190911b82018301908381019087831115610edb57600080fd5b928401925b82841015610f0057610ef184610d3e565b82529284019290840190610ee0565b979650505050505050565b634e487b7160e01b600052601160045260246000fd5b80820180821115610f3457610f34610f0b565b92915050565b60006020808385031215610f4d57600080fd5b825167ffffffffffffffff811115610f6457600080fd5b8301601f81018513610f7557600080fd5b8051610f83610eb782610e4a565b81815260059190911b82018301908381019087831115610fa257600080fd5b928401925b82841015610f0057835182529284019290840190610fa7565b81810381811115610f3457610f34610f0b565b634e487b7160e01b600052603260045260246000fd5b600060208284031215610ffb57600080fd5b5051919050565b60006020828403121561101457600080fd5b81518015158114610d7557600080fd5b60008261104157634e487b7160e01b600052601260045260246000fd5b500490565b8082028115828204841417610f3457610f34610f0b565b60006001820161106f5761106f610f0b565b506001019056fea2646970667358221220358113889a27111b9784eaccbb6ed005f0cc553c7f10ab357419cc0853382c8064736f6c63430008110033",
					"opcodes": "PUSH1 0x80 PUSH1 0x40 MSTORE PUSH1 0x5 DUP1 SLOAD PUSH1 0x1 PUSH1 0x1 PUSH1 0xA0 SHL SUB NOT SWAP1 DUP2 AND PUSH20 0xCDDE1F5D971A369EB952192F9A5C367F33A0A891 OR SWAP1 SWAP2 SSTORE PUSH1 0x6 DUP1 SLOAD DUP3 AND PUSH20 0xAFDBE5989CAB06E66244CC2583F0CAEECB6EA8E OR SWAP1 SSTORE PUSH1 0x7 DUP1 SLOAD SWAP1 SWAP2 AND PUSH20 0x6D2B2E6FF4D7614994A4314D492207B6342B1029 OR SWAP1 SSTORE CALLVALUE DUP1 ISZERO PUSH2 0x76 JUMPI PUSH1 0x0 DUP1 REVERT JUMPDEST POP PUSH2 0x10AC DUP1 PUSH2 0x86 PUSH1 0x0 CODECOPY PUSH1 0x0 RETURN INVALID PUSH1 0x80 PUSH1 0x40 MSTORE PUSH1 0x4 CALLDATASIZE LT PUSH2 0xFE JUMPI PUSH1 0x0 CALLDATALOAD PUSH1 0xE0 SHR DUP1 PUSH4 0x6139F158 GT PUSH2 0x95 JUMPI DUP1 PUSH4 0xD0E30DB0 GT PUSH2 0x64 JUMPI DUP1 PUSH4 0xD0E30DB0 EQ PUSH2 0x28C JUMPI DUP1 PUSH4 0xD2E3663E EQ PUSH2 0x294 JUMPI DUP1 PUSH4 0xEA77278C EQ PUSH2 0x2B4 JUMPI DUP1 PUSH4 0xF81E4685 EQ PUSH2 0x2D4 JUMPI DUP1 PUSH4 0xFBCDA19A EQ PUSH2 0x2E9 JUMPI PUSH1 0x0 DUP1 REVERT JUMPDEST DUP1 PUSH4 0x6139F158 EQ PUSH2 0x236 JUMPI DUP1 PUSH4 0xAD7A672F EQ PUSH2 0x256 JUMPI DUP1 PUSH4 0xBA46A6E2 EQ PUSH2 0x26C JUMPI DUP1 PUSH4 0xBFF28A23 EQ PUSH2 0x1F4 JUMPI PUSH1 0x0 DUP1 REVERT JUMPDEST DUP1 PUSH4 0x2E585FD8 GT PUSH2 0xD1 JUMPI DUP1 PUSH4 0x2E585FD8 EQ PUSH2 0x1BF JUMPI DUP1 PUSH4 0x3CCFD60B EQ PUSH2 0x1DF JUMPI DUP1 PUSH4 0x4321B1C0 EQ PUSH2 0x1F4 JUMPI DUP1 PUSH4 0x56D6EA4F EQ PUSH2 0x209 JUMPI PUSH1 0x0 DUP1 REVERT JUMPDEST DUP1 PUSH4 0x700037D EQ PUSH2 0x103 JUMPI DUP1 PUSH4 0x23B3B9E0 EQ PUSH2 0x143 JUMPI DUP1 PUSH4 0x27E235E3 EQ PUSH2 0x165 JUMPI DUP1 PUSH4 0x2DE9269E EQ PUSH2 0x192 JUMPI JUMPDEST PUSH1 0x0 DUP1 REVERT JUMPDEST CALLVALUE DUP1 ISZERO PUSH2 0x10F JUMPI PUSH1 0x0 DUP1 REVERT JUMPDEST POP PUSH2 0x130 PUSH2 0x11E CALLDATASIZE PUSH1 0x4 PUSH2 0xD5A JUMP JUMPDEST PUSH1 0x3 PUSH1 0x20 MSTORE PUSH1 0x0 SWAP1 DUP2 MSTORE PUSH1 0x40 SWAP1 KECCAK256 SLOAD DUP2 JUMP JUMPDEST PUSH1 0x40 MLOAD SWAP1 DUP2 MSTORE PUSH1 0x20 ADD JUMPDEST PUSH1 0x40 MLOAD DUP1 SWAP2 SUB SWAP1 RETURN JUMPDEST CALLVALUE DUP1 ISZERO PUSH2 0x14F JUMPI PUSH1 0x0 DUP1 REVERT JUMPDEST POP PUSH2 0x163 PUSH2 0x15E CALLDATASIZE PUSH1 0x4 PUSH2 0xD7C JUMP JUMPDEST PUSH2 0x309 JUMP JUMPDEST STOP JUMPDEST CALLVALUE DUP1 ISZERO PUSH2 0x171 JUMPI PUSH1 0x0 DUP1 REVERT JUMPDEST POP PUSH2 0x130 PUSH2 0x180 CALLDATASIZE PUSH1 0x4 PUSH2 0xD5A JUMP JUMPDEST PUSH1 0x0 PUSH1 0x20 DUP2 SWAP1 MSTORE SWAP1 DUP2 MSTORE PUSH1 0x40 SWAP1 KECCAK256 SLOAD DUP2 JUMP JUMPDEST CALLVALUE DUP1 ISZERO PUSH2 0x19E JUMPI PUSH1 0x0 DUP1 REVERT JUMPDEST POP PUSH2 0x1B2 PUSH2 0x1AD CALLDATASIZE PUSH1 0x4 PUSH2 0xD5A JUMP JUMPDEST PUSH2 0x36B JUMP JUMPDEST PUSH1 0x40 MLOAD PUSH2 0x13A SWAP2 SWAP1 PUSH2 0xD95 JUMP JUMPDEST CALLVALUE DUP1 ISZERO PUSH2 0x1CB JUMPI PUSH1 0x0 DUP1 REVERT JUMPDEST POP PUSH2 0x163 PUSH2 0x1DA CALLDATASIZE PUSH1 0x4 PUSH2 0xD7C JUMP JUMPDEST PUSH2 0x3D7 JUMP JUMPDEST CALLVALUE DUP1 ISZERO PUSH2 0x1EB JUMPI PUSH1 0x0 DUP1 REVERT JUMPDEST POP PUSH2 0x163 PUSH2 0x448 JUMP JUMPDEST CALLVALUE DUP1 ISZERO PUSH2 0x200 JUMPI PUSH1 0x0 DUP1 REVERT JUMPDEST POP PUSH2 0x163 PUSH2 0x640 JUMP JUMPDEST CALLVALUE DUP1 ISZERO PUSH2 0x215 JUMPI PUSH1 0x0 DUP1 REVERT JUMPDEST POP PUSH2 0x130 PUSH2 0x224 CALLDATASIZE PUSH1 0x4 PUSH2 0xD5A JUMP JUMPDEST PUSH1 0x1 PUSH1 0x20 MSTORE PUSH1 0x0 SWAP1 DUP2 MSTORE PUSH1 0x40 SWAP1 KECCAK256 SLOAD DUP2 JUMP JUMPDEST CALLVALUE DUP1 ISZERO PUSH2 0x242 JUMPI PUSH1 0x0 DUP1 REVERT JUMPDEST POP PUSH2 0x163 PUSH2 0x251 CALLDATASIZE PUSH1 0x4 PUSH2 0xD5A JUMP JUMPDEST PUSH2 0x6AA JUMP JUMPDEST CALLVALUE DUP1 ISZERO PUSH2 0x262 JUMPI PUSH1 0x0 DUP1 REVERT JUMPDEST POP PUSH2 0x130 PUSH1 0x4 SLOAD DUP2 JUMP JUMPDEST CALLVALUE DUP1 ISZERO PUSH2 0x278 JUMPI PUSH1 0x0 DUP1 REVERT JUMPDEST POP PUSH2 0x163 PUSH2 0x287 CALLDATASIZE PUSH1 0x4 PUSH2 0xD7C JUMP JUMPDEST PUSH2 0x720 JUMP JUMPDEST PUSH2 0x163 PUSH2 0x758 JUMP JUMPDEST CALLVALUE DUP1 ISZERO PUSH2 0x2A0 JUMPI PUSH1 0x0 DUP1 REVERT JUMPDEST POP PUSH2 0x130 PUSH2 0x2AF CALLDATASIZE PUSH1 0x4 PUSH2 0xDD9 JUMP JUMPDEST PUSH2 0xA09 JUMP JUMPDEST CALLVALUE DUP1 ISZERO PUSH2 0x2C0 JUMPI PUSH1 0x0 DUP1 REVERT JUMPDEST POP PUSH2 0x163 PUSH2 0x2CF CALLDATASIZE PUSH1 0x4 PUSH2 0xE6E JUMP JUMPDEST PUSH2 0xA3A JUMP JUMPDEST CALLVALUE DUP1 ISZERO PUSH2 0x2E0 JUMPI PUSH1 0x0 DUP1 REVERT JUMPDEST POP PUSH2 0x163 PUSH2 0xCC7 JUMP JUMPDEST CALLVALUE DUP1 ISZERO PUSH2 0x2F5 JUMPI PUSH1 0x0 DUP1 REVERT JUMPDEST POP PUSH2 0x163 PUSH2 0x304 CALLDATASIZE PUSH1 0x4 PUSH2 0xD7C JUMP JUMPDEST PUSH2 0xD0D JUMP JUMPDEST PUSH1 0x7 SLOAD PUSH1 0x40 MLOAD PUSH4 0x5C2FBCF PUSH1 0xE3 SHL DUP2 MSTORE PUSH1 0x4 DUP2 ADD DUP4 SWAP1 MSTORE PUSH1 0x1 PUSH1 0x1 PUSH1 0xA0 SHL SUB SWAP1 SWAP2 AND SWAP1 PUSH4 0x2E17DE78 SWAP1 PUSH1 0x24 ADD JUMPDEST PUSH1 0x0 PUSH1 0x40 MLOAD DUP1 DUP4 SUB DUP2 PUSH1 0x0 DUP8 DUP1 EXTCODESIZE ISZERO DUP1 ISZERO PUSH2 0x350 JUMPI PUSH1 0x0 DUP1 REVERT JUMPDEST POP GAS CALL ISZERO DUP1 ISZERO PUSH2 0x364 JUMPI RETURNDATASIZE PUSH1 0x0 DUP1 RETURNDATACOPY RETURNDATASIZE PUSH1 0x0 REVERT JUMPDEST POP POP POP POP POP JUMP JUMPDEST PUSH1 0x1 PUSH1 0x1 PUSH1 0xA0 SHL SUB DUP2 AND PUSH1 0x0 SWAP1 DUP2 MSTORE PUSH1 0x2 PUSH1 0x20 SWAP1 DUP2 MSTORE PUSH1 0x40 SWAP2 DUP3 SWAP1 KECCAK256 DUP1 SLOAD DUP4 MLOAD DUP2 DUP5 MUL DUP2 ADD DUP5 ADD SWAP1 SWAP5 MSTORE DUP1 DUP5 MSTORE PUSH1 0x60 SWAP4 SWAP3 DUP4 ADD DUP3 DUP3 DUP1 ISZERO PUSH2 0x3CB JUMPI PUSH1 0x20 MUL DUP3 ADD SWAP2 SWAP1 PUSH1 0x0 MSTORE PUSH1 0x20 PUSH1 0x0 KECCAK256 SWAP1 JUMPDEST DUP2 SLOAD DUP2 MSTORE PUSH1 0x20 ADD SWAP1 PUSH1 0x1 ADD SWAP1 DUP1 DUP4 GT PUSH2 0x3B7 JUMPI JUMPDEST POP POP POP POP POP SWAP1 POP SWAP2 SWAP1 POP JUMP JUMPDEST PUSH1 0x7 SLOAD PUSH1 0x40 MLOAD PUSH4 0x9D59E1B9 PUSH1 0xE0 SHL DUP2 MSTORE PUSH1 0x4 DUP2 ADD DUP4 SWAP1 MSTORE PUSH1 0x1 PUSH1 0x1 PUSH1 0xA0 SHL SUB SWAP1 SWAP2 AND SWAP1 PUSH4 0x9D59E1B9 SWAP1 PUSH1 0x24 ADD PUSH1 0x0 PUSH1 0x40 MLOAD DUP1 DUP4 SUB DUP2 PUSH1 0x0 DUP8 DUP1 EXTCODESIZE ISZERO DUP1 ISZERO PUSH2 0x41D JUMPI PUSH1 0x0 DUP1 REVERT JUMPDEST POP GAS CALL ISZERO DUP1 ISZERO PUSH2 0x431 JUMPI RETURNDATASIZE PUSH1 0x0 DUP1 RETURNDATACOPY RETURNDATASIZE PUSH1 0x0 REVERT JUMPDEST POP POP CALLER PUSH1 0x0 SWAP1 DUP2 MSTORE PUSH1 0x1 PUSH1 0x20 MSTORE PUSH1 0x40 DUP2 KECCAK256 SSTORE POP POP POP JUMP JUMPDEST CALLER PUSH1 0x0 SWAP1 DUP2 MSTORE PUSH1 0x3 PUSH1 0x20 SWAP1 DUP2 MSTORE PUSH1 0x40 DUP1 DUP4 KECCAK256 SLOAD ADDRESS DUP5 MSTORE SWAP2 DUP4 SWAP1 MSTORE DUP3 KECCAK256 SLOAD PUSH2 0x46F SWAP2 SWAP1 PUSH2 0xF21 JUMP JUMPDEST PUSH1 0x6 SLOAD PUSH1 0x40 MLOAD PUSH4 0x348B597F PUSH1 0xE0 SHL DUP2 MSTORE PUSH1 0x0 PUSH1 0x4 DUP3 ADD MSTORE PUSH1 0x24 DUP2 ADD DUP4 SWAP1 MSTORE SWAP2 SWAP3 POP PUSH1 0x1 PUSH1 0x1 PUSH1 0xA0 SHL SUB AND SWAP1 PUSH4 0x348B597F SWAP1 PUSH1 0x44 ADD PUSH1 0x0 PUSH1 0x40 MLOAD DUP1 DUP4 SUB DUP2 PUSH1 0x0 DUP8 DUP1 EXTCODESIZE ISZERO DUP1 ISZERO PUSH2 0x4BD JUMPI PUSH1 0x0 DUP1 REVERT JUMPDEST POP GAS CALL ISZERO DUP1 ISZERO PUSH2 0x4D1 JUMPI RETURNDATASIZE PUSH1 0x0 DUP1 RETURNDATACOPY RETURNDATASIZE PUSH1 0x0 REVERT JUMPDEST POP POP PUSH1 0x7 SLOAD PUSH1 0x40 MLOAD PUSH4 0x5C2FBCF PUSH1 0xE3 SHL DUP2 MSTORE PUSH1 0x4 DUP2 ADD DUP6 SWAP1 MSTORE PUSH1 0x1 PUSH1 0x1 PUSH1 0xA0 SHL SUB SWAP1 SWAP2 AND SWAP3 POP PUSH4 0x2E17DE78 SWAP2 POP PUSH1 0x24 ADD PUSH1 0x0 PUSH1 0x40 MLOAD DUP1 DUP4 SUB DUP2 PUSH1 0x0 DUP8 DUP1 EXTCODESIZE ISZERO DUP1 ISZERO PUSH2 0x51B JUMPI PUSH1 0x0 DUP1 REVERT JUMPDEST POP GAS CALL ISZERO DUP1 ISZERO PUSH2 0x52F JUMPI RETURNDATASIZE PUSH1 0x0 DUP1 RETURNDATACOPY RETURNDATASIZE PUSH1 0x0 REVERT JUMPDEST POP POP PUSH1 0x7 SLOAD PUSH1 0x40 MLOAD PUSH4 0xACC77B87 PUSH1 0xE0 SHL DUP2 MSTORE ADDRESS PUSH1 0x4 DUP3 ADD MSTORE PUSH1 0x0 SWAP4 POP PUSH1 0x1 PUSH1 0x1 PUSH1 0xA0 SHL SUB SWAP1 SWAP2 AND SWAP2 POP PUSH4 0xACC77B87 SWAP1 PUSH1 0x24 ADD PUSH1 0x0 PUSH1 0x40 MLOAD DUP1 DUP4 SUB DUP2 DUP7 GAS STATICCALL ISZERO DUP1 ISZERO PUSH2 0x57E JUMPI RETURNDATASIZE PUSH1 0x0 DUP1 RETURNDATACOPY RETURNDATASIZE PUSH1 0x0 REVERT JUMPDEST POP POP POP POP PUSH1 0x40 MLOAD RETURNDATASIZE PUSH1 0x0 DUP3 RETURNDATACOPY PUSH1 0x1F RETURNDATASIZE SWAP1 DUP2 ADD PUSH1 0x1F NOT AND DUP3 ADD PUSH1 0x40 MSTORE PUSH2 0x5A6 SWAP2 SWAP1 DUP2 ADD SWAP1 PUSH2 0xF3A JUMP JUMPDEST CALLER PUSH1 0x0 SWAP1 DUP2 MSTORE PUSH1 0x20 DUP2 DUP2 MSTORE PUSH1 0x40 DUP1 DUP4 KECCAK256 SLOAD PUSH1 0x1 SWAP1 SWAP3 MSTORE DUP3 KECCAK256 DUP1 SLOAD SWAP4 SWAP5 POP SWAP1 SWAP3 SWAP1 SWAP2 SWAP1 PUSH2 0x5D3 SWAP1 DUP5 SWAP1 PUSH2 0xF21 JUMP JUMPDEST SWAP1 SWAP2 SSTORE POP POP CALLER PUSH1 0x0 SWAP1 DUP2 MSTORE PUSH1 0x20 DUP2 DUP2 MSTORE PUSH1 0x40 DUP1 DUP4 KECCAK256 DUP4 SWAP1 SSTORE PUSH1 0x2 SWAP1 SWAP2 MSTORE SWAP1 KECCAK256 DUP2 MLOAD DUP3 SWAP1 PUSH2 0x602 SWAP1 PUSH1 0x1 SWAP1 PUSH2 0xFC0 JUMP JUMPDEST DUP2 MLOAD DUP2 LT PUSH2 0x612 JUMPI PUSH2 0x612 PUSH2 0xFD3 JUMP JUMPDEST PUSH1 0x20 SWAP1 DUP2 MUL SWAP2 SWAP1 SWAP2 ADD DUP2 ADD MLOAD DUP3 SLOAD PUSH1 0x1 DUP2 ADD DUP5 SSTORE PUSH1 0x0 SWAP4 DUP5 MSTORE DUP3 DUP5 KECCAK256 ADD SSTORE CALLER DUP3 MSTORE PUSH1 0x3 SWAP1 MSTORE PUSH1 0x40 DUP2 KECCAK256 SSTORE POP POP JUMP JUMPDEST PUSH1 0x7 PUSH1 0x0 SWAP1 SLOAD SWAP1 PUSH2 0x100 EXP SWAP1 DIV PUSH1 0x1 PUSH1 0x1 PUSH1 0xA0 SHL SUB AND PUSH1 0x1 PUSH1 0x1 PUSH1 0xA0 SHL SUB AND PUSH4 0xC885BC58 PUSH1 0x40 MLOAD DUP2 PUSH4 0xFFFFFFFF AND PUSH1 0xE0 SHL DUP2 MSTORE PUSH1 0x4 ADD PUSH1 0x0 PUSH1 0x40 MLOAD DUP1 DUP4 SUB DUP2 PUSH1 0x0 DUP8 DUP1 EXTCODESIZE ISZERO DUP1 ISZERO PUSH2 0x690 JUMPI PUSH1 0x0 DUP1 REVERT JUMPDEST POP GAS CALL ISZERO DUP1 ISZERO PUSH2 0x6A4 JUMPI RETURNDATASIZE PUSH1 0x0 DUP1 RETURNDATACOPY RETURNDATASIZE PUSH1 0x0 REVERT JUMPDEST POP POP POP POP JUMP JUMPDEST PUSH1 0x7 SLOAD PUSH1 0x40 MLOAD PUSH4 0xACC77B87 PUSH1 0xE0 SHL DUP2 MSTORE PUSH1 0x1 PUSH1 0x1 PUSH1 0xA0 SHL SUB DUP4 DUP2 AND PUSH1 0x4 DUP4 ADD MSTORE SWAP1 SWAP2 AND SWAP1 PUSH4 0xACC77B87 SWAP1 PUSH1 0x24 ADD PUSH1 0x0 PUSH1 0x40 MLOAD DUP1 DUP4 SUB DUP2 DUP7 GAS STATICCALL ISZERO DUP1 ISZERO PUSH2 0x6F4 JUMPI RETURNDATASIZE PUSH1 0x0 DUP1 RETURNDATACOPY RETURNDATASIZE PUSH1 0x0 REVERT JUMPDEST POP POP POP POP PUSH1 0x40 MLOAD RETURNDATASIZE PUSH1 0x0 DUP3 RETURNDATACOPY PUSH1 0x1F RETURNDATASIZE SWAP1 DUP2 ADD PUSH1 0x1F NOT AND DUP3 ADD PUSH1 0x40 MSTORE PUSH2 0x71C SWAP2 SWAP1 DUP2 ADD SWAP1 PUSH2 0xF3A JUMP JUMPDEST POP POP JUMP JUMPDEST PUSH1 0x6 SLOAD PUSH1 0x40 MLOAD PUSH4 0x348B597F PUSH1 0xE0 SHL DUP2 MSTORE PUSH1 0x0 PUSH1 0x4 DUP3 ADD MSTORE PUSH1 0x24 DUP2 ADD DUP4 SWAP1 MSTORE PUSH1 0x1 PUSH1 0x1 PUSH1 0xA0 SHL SUB SWAP1 SWAP2 AND SWAP1 PUSH4 0x348B597F SWAP1 PUSH1 0x44 ADD PUSH2 0x336 JUMP JUMPDEST PUSH1 0xA CALLVALUE GT PUSH2 0x797 JUMPI PUSH1 0x40 MLOAD PUSH3 0x461BCD PUSH1 0xE5 SHL DUP2 MSTORE PUSH1 0x20 PUSH1 0x4 DUP3 ADD MSTORE PUSH1 0x8 PUSH1 0x24 DUP3 ADD MSTORE PUSH8 0x766963203E20313 PUSH1 0xC4 SHL PUSH1 0x44 DUP3 ADD MSTORE PUSH1 0x64 ADD PUSH1 0x40 MLOAD DUP1 SWAP2 SUB SWAP1 REVERT JUMPDEST PUSH1 0x7 PUSH1 0x0 SWAP1 SLOAD SWAP1 PUSH2 0x100 EXP SWAP1 DIV PUSH1 0x1 PUSH1 0x1 PUSH1 0xA0 SHL SUB AND PUSH1 0x1 PUSH1 0x1 PUSH1 0xA0 SHL SUB AND PUSH4 0x3A4B66F1 CALLVALUE PUSH1 0x40 MLOAD DUP3 PUSH4 0xFFFFFFFF AND PUSH1 0xE0 SHL DUP2 MSTORE PUSH1 0x4 ADD PUSH1 0x0 PUSH1 0x40 MLOAD DUP1 DUP4 SUB DUP2 DUP6 DUP9 DUP1 EXTCODESIZE ISZERO DUP1 ISZERO PUSH2 0x7E7 JUMPI PUSH1 0x0 DUP1 REVERT JUMPDEST POP GAS CALL ISZERO DUP1 ISZERO PUSH2 0x7FB JUMPI RETURNDATASIZE PUSH1 0x0 DUP1 RETURNDATACOPY RETURNDATASIZE PUSH1 0x0 REVERT JUMPDEST POP POP PUSH1 0x5 SLOAD PUSH1 0x6 SLOAD PUSH1 0x40 MLOAD PUSH4 0x6EB1769F PUSH1 0xE1 SHL DUP2 MSTORE ADDRESS PUSH1 0x4 DUP3 ADD MSTORE PUSH1 0x1 PUSH1 0x1 PUSH1 0xA0 SHL SUB SWAP2 DUP3 AND PUSH1 0x24 DUP3 ADD MSTORE PUSH1 0x0 SWAP6 POP SWAP2 AND SWAP3 POP PUSH4 0xDD62ED3E SWAP2 POP PUSH1 0x44 ADD PUSH1 0x20 PUSH1 0x40 MLOAD DUP1 DUP4 SUB DUP2 DUP7 GAS STATICCALL ISZERO DUP1 ISZERO PUSH2 0x855 JUMPI RETURNDATASIZE PUSH1 0x0 DUP1 RETURNDATACOPY RETURNDATASIZE PUSH1 0x0 REVERT JUMPDEST POP POP POP POP PUSH1 0x40 MLOAD RETURNDATASIZE PUSH1 0x1F NOT PUSH1 0x1F DUP3 ADD AND DUP3 ADD DUP1 PUSH1 0x40 MSTORE POP DUP2 ADD SWAP1 PUSH2 0x879 SWAP2 SWAP1 PUSH2 0xFE9 JUMP JUMPDEST SWAP1 POP DUP1 PUSH1 0x0 SUB PUSH2 0x90D JUMPI PUSH1 0x5 SLOAD PUSH1 0x6 SLOAD PUSH1 0x40 MLOAD PUSH4 0x95EA7B3 PUSH1 0xE0 SHL DUP2 MSTORE PUSH1 0x1 PUSH1 0x1 PUSH1 0xA0 SHL SUB SWAP2 DUP3 AND PUSH1 0x4 DUP3 ADD MSTORE PUSH16 0x4B3B4CA85ADA522DA6ECCABC8FD19389 PUSH1 0x24 DUP3 ADD MSTORE SWAP2 AND SWAP1 PUSH4 0x95EA7B3 SWAP1 PUSH1 0x44 ADD PUSH1 0x20 PUSH1 0x40 MLOAD DUP1 DUP4 SUB DUP2 PUSH1 0x0 DUP8 GAS CALL ISZERO DUP1 ISZERO PUSH2 0x8E7 JUMPI RETURNDATASIZE PUSH1 0x0 DUP1 RETURNDATACOPY RETURNDATASIZE PUSH1 0x0 REVERT JUMPDEST POP POP POP POP PUSH1 0x40 MLOAD RETURNDATASIZE PUSH1 0x1F NOT PUSH1 0x1F DUP3 ADD AND DUP3 ADD DUP1 PUSH1 0x40 MSTORE POP DUP2 ADD SWAP1 PUSH2 0x90B SWAP2 SWAP1 PUSH2 0x1002 JUMP JUMPDEST POP JUMPDEST PUSH1 0x5 SLOAD PUSH1 0x40 MLOAD PUSH4 0x70A08231 PUSH1 0xE0 SHL DUP2 MSTORE ADDRESS PUSH1 0x4 DUP3 ADD MSTORE PUSH1 0x0 SWAP2 PUSH1 0x1 PUSH1 0x1 PUSH1 0xA0 SHL SUB AND SWAP1 PUSH4 0x70A08231 SWAP1 PUSH1 0x24 ADD PUSH1 0x20 PUSH1 0x40 MLOAD DUP1 DUP4 SUB DUP2 DUP7 GAS STATICCALL ISZERO DUP1 ISZERO PUSH2 0x956 JUMPI RETURNDATASIZE PUSH1 0x0 DUP1 RETURNDATACOPY RETURNDATASIZE PUSH1 0x0 REVERT JUMPDEST POP POP POP POP PUSH1 0x40 MLOAD RETURNDATASIZE PUSH1 0x1F NOT PUSH1 0x1F DUP3 ADD AND DUP3 ADD DUP1 PUSH1 0x40 MSTORE POP DUP2 ADD SWAP1 PUSH2 0x97A SWAP2 SWAP1 PUSH2 0xFE9 JUMP JUMPDEST PUSH1 0x6 SLOAD PUSH1 0x40 MLOAD PUSH4 0x1C57762B PUSH1 0xE3 SHL DUP2 MSTORE PUSH1 0x0 PUSH1 0x4 DUP3 ADD MSTORE PUSH1 0x24 DUP2 ADD DUP4 SWAP1 MSTORE SWAP2 SWAP3 POP PUSH1 0x1 PUSH1 0x1 PUSH1 0xA0 SHL SUB AND SWAP1 PUSH4 0xE2BBB158 SWAP1 PUSH1 0x44 ADD PUSH1 0x0 PUSH1 0x40 MLOAD DUP1 DUP4 SUB DUP2 PUSH1 0x0 DUP8 DUP1 EXTCODESIZE ISZERO DUP1 ISZERO PUSH2 0x9C8 JUMPI PUSH1 0x0 DUP1 REVERT JUMPDEST POP GAS CALL ISZERO DUP1 ISZERO PUSH2 0x9DC JUMPI RETURNDATASIZE PUSH1 0x0 DUP1 RETURNDATACOPY RETURNDATASIZE PUSH1 0x0 REVERT JUMPDEST POP POP CALLER PUSH1 0x0 SWAP1 DUP2 MSTORE PUSH1 0x20 DUP2 SWAP1 MSTORE PUSH1 0x40 DUP2 KECCAK256 DUP1 SLOAD CALLVALUE SWAP5 POP SWAP1 SWAP3 POP PUSH2 0xA00 SWAP1 DUP5 SWAP1 PUSH2 0xF21 JUMP JUMPDEST SWAP1 SWAP2 SSTORE POP POP POP POP JUMP JUMPDEST PUSH1 0x2 PUSH1 0x20 MSTORE DUP2 PUSH1 0x0 MSTORE PUSH1 0x40 PUSH1 0x0 KECCAK256 DUP2 DUP2 SLOAD DUP2 LT PUSH2 0xA25 JUMPI PUSH1 0x0 DUP1 REVERT JUMPDEST SWAP1 PUSH1 0x0 MSTORE PUSH1 0x20 PUSH1 0x0 KECCAK256 ADD PUSH1 0x0 SWAP2 POP SWAP2 POP POP SLOAD DUP2 JUMP JUMPDEST PUSH1 0x6 SLOAD PUSH1 0x7 SLOAD PUSH1 0x40 MLOAD PUSH4 0x4C4B4F41 PUSH1 0xE1 SHL DUP2 MSTORE PUSH1 0x0 PUSH1 0x4 DUP3 ADD DUP2 SWAP1 MSTORE ADDRESS PUSH1 0x24 DUP4 ADD MSTORE PUSH1 0x1 PUSH1 0x1 PUSH1 0xA0 SHL SUB SWAP4 DUP5 AND SWAP4 SWAP1 SWAP3 AND SWAP2 SWAP1 DUP4 SWAP1 PUSH4 0x98969E82 SWAP1 PUSH1 0x44 ADD PUSH1 0x20 PUSH1 0x40 MLOAD DUP1 DUP4 SUB DUP2 DUP7 GAS STATICCALL ISZERO DUP1 ISZERO PUSH2 0xA95 JUMPI RETURNDATASIZE PUSH1 0x0 DUP1 RETURNDATACOPY RETURNDATASIZE PUSH1 0x0 REVERT JUMPDEST POP POP POP POP PUSH1 0x40 MLOAD RETURNDATASIZE PUSH1 0x1F NOT PUSH1 0x1F DUP3 ADD AND DUP3 ADD DUP1 PUSH1 0x40 MSTORE POP DUP2 ADD SWAP1 PUSH2 0xAB9 SWAP2 SWAP1 PUSH2 0xFE9 JUMP JUMPDEST PUSH1 0x40 MLOAD PUSH4 0x2B2B8415 PUSH1 0xE0 SHL DUP2 MSTORE ADDRESS PUSH1 0x4 DUP3 ADD MSTORE SWAP1 SWAP2 POP PUSH1 0x0 SWAP1 PUSH1 0x1 PUSH1 0x1 PUSH1 0xA0 SHL SUB DUP5 AND SWAP1 PUSH4 0x2B2B8415 SWAP1 PUSH1 0x24 ADD PUSH1 0x20 PUSH1 0x40 MLOAD DUP1 DUP4 SUB DUP2 DUP7 GAS STATICCALL ISZERO DUP1 ISZERO PUSH2 0xB03 JUMPI RETURNDATASIZE PUSH1 0x0 DUP1 RETURNDATACOPY RETURNDATASIZE PUSH1 0x0 REVERT JUMPDEST POP POP POP POP PUSH1 0x40 MLOAD RETURNDATASIZE PUSH1 0x1F NOT PUSH1 0x1F DUP3 ADD AND DUP3 ADD DUP1 PUSH1 0x40 MSTORE POP DUP2 ADD SWAP1 PUSH2 0xB27 SWAP2 SWAP1 PUSH2 0xFE9 JUMP JUMPDEST SWAP1 POP PUSH1 0x0 PUSH2 0xB35 DUP3 DUP5 PUSH2 0xF21 JUMP JUMPDEST SWAP1 POP PUSH1 0xA DUP2 GT ISZERO PUSH2 0xBF7 JUMPI DUP4 PUSH1 0x1 PUSH1 0x1 PUSH1 0xA0 SHL SUB AND PUSH4 0x3A4B66F1 DUP3 PUSH1 0x40 MLOAD DUP3 PUSH4 0xFFFFFFFF AND PUSH1 0xE0 SHL DUP2 MSTORE PUSH1 0x4 ADD PUSH1 0x0 PUSH1 0x40 MLOAD DUP1 DUP4 SUB DUP2 DUP6 DUP9 DUP1 EXTCODESIZE ISZERO DUP1 ISZERO PUSH2 0xB7B JUMPI PUSH1 0x0 DUP1 REVERT JUMPDEST POP GAS CALL ISZERO DUP1 ISZERO PUSH2 0xB8F JUMPI RETURNDATASIZE PUSH1 0x0 DUP1 RETURNDATACOPY RETURNDATASIZE PUSH1 0x0 REVERT JUMPDEST POP POP PUSH1 0x40 MLOAD PUSH4 0x1C57762B PUSH1 0xE3 SHL DUP2 MSTORE PUSH1 0x0 PUSH1 0x4 DUP3 ADD MSTORE PUSH1 0x24 DUP2 ADD DUP6 SWAP1 MSTORE PUSH1 0x1 PUSH1 0x1 PUSH1 0xA0 SHL SUB DUP10 AND SWAP4 POP PUSH4 0xE2BBB158 SWAP3 POP PUSH1 0x44 ADD SWAP1 POP PUSH1 0x0 PUSH1 0x40 MLOAD DUP1 DUP4 SUB DUP2 PUSH1 0x0 DUP8 DUP1 EXTCODESIZE ISZERO DUP1 ISZERO PUSH2 0xBDE JUMPI PUSH1 0x0 DUP1 REVERT JUMPDEST POP GAS CALL ISZERO DUP1 ISZERO PUSH2 0xBF2 JUMPI RETURNDATASIZE PUSH1 0x0 DUP1 RETURNDATACOPY RETURNDATASIZE PUSH1 0x0 REVERT JUMPDEST POP POP POP POP JUMPDEST PUSH1 0x0 JUMPDEST DUP7 MLOAD DUP2 LT ISZERO PUSH2 0xCBE JUMPI PUSH1 0x0 DUP1 DUP9 DUP4 DUP2 MLOAD DUP2 LT PUSH2 0xC18 JUMPI PUSH2 0xC18 PUSH2 0xFD3 JUMP JUMPDEST PUSH1 0x20 MUL PUSH1 0x20 ADD ADD MLOAD PUSH1 0x1 PUSH1 0x1 PUSH1 0xA0 SHL SUB AND PUSH1 0x1 PUSH1 0x1 PUSH1 0xA0 SHL SUB AND DUP2 MSTORE PUSH1 0x20 ADD SWAP1 DUP2 MSTORE PUSH1 0x20 ADD PUSH1 0x0 KECCAK256 SLOAD PUSH1 0x4 SLOAD DUP4 PUSH2 0xC4F SWAP2 SWAP1 PUSH2 0x1024 JUMP JUMPDEST PUSH2 0xC59 SWAP2 SWAP1 PUSH2 0x1046 JUMP JUMPDEST PUSH1 0x3 PUSH1 0x0 DUP10 DUP5 DUP2 MLOAD DUP2 LT PUSH2 0xC6F JUMPI PUSH2 0xC6F PUSH2 0xFD3 JUMP JUMPDEST PUSH1 0x20 MUL PUSH1 0x20 ADD ADD MLOAD PUSH1 0x1 PUSH1 0x1 PUSH1 0xA0 SHL SUB AND PUSH1 0x1 PUSH1 0x1 PUSH1 0xA0 SHL SUB AND DUP2 MSTORE PUSH1 0x20 ADD SWAP1 DUP2 MSTORE PUSH1 0x20 ADD PUSH1 0x0 KECCAK256 PUSH1 0x0 DUP3 DUP3 SLOAD PUSH2 0xCA6 SWAP2 SWAP1 PUSH2 0xF21 JUMP JUMPDEST SWAP1 SWAP2 SSTORE POP DUP2 SWAP1 POP PUSH2 0xCB6 DUP2 PUSH2 0x105D JUMP JUMPDEST SWAP2 POP POP PUSH2 0xBFA JUMP JUMPDEST POP POP POP POP POP POP POP JUMP JUMPDEST PUSH1 0x6 SLOAD PUSH1 0x40 MLOAD PUSH4 0x6EE31931 PUSH1 0xE1 SHL DUP2 MSTORE PUSH1 0x0 PUSH1 0x4 DUP3 ADD MSTORE PUSH1 0x1 PUSH1 0x1 PUSH1 0xA0 SHL SUB SWAP1 SWAP2 AND SWAP1 PUSH4 0xDDC63262 SWAP1 PUSH1 0x24 ADD PUSH1 0x0 PUSH1 0x40 MLOAD DUP1 DUP4 SUB DUP2 PUSH1 0x0 DUP8 DUP1 EXTCODESIZE ISZERO DUP1 ISZERO PUSH2 0x690 JUMPI PUSH1 0x0 DUP1 REVERT JUMPDEST PUSH1 0x7 SLOAD PUSH1 0x40 MLOAD PUSH4 0x9D59E1B9 PUSH1 0xE0 SHL DUP2 MSTORE PUSH1 0x4 DUP2 ADD DUP4 SWAP1 MSTORE PUSH1 0x1 PUSH1 0x1 PUSH1 0xA0 SHL SUB SWAP1 SWAP2 AND SWAP1 PUSH4 0x9D59E1B9 SWAP1 PUSH1 0x24 ADD PUSH2 0x336 JUMP JUMPDEST DUP1 CALLDATALOAD PUSH1 0x1 PUSH1 0x1 PUSH1 0xA0 SHL SUB DUP2 AND DUP2 EQ PUSH2 0xD55 JUMPI PUSH1 0x0 DUP1 REVERT JUMPDEST SWAP2 SWAP1 POP JUMP JUMPDEST PUSH1 0x0 PUSH1 0x20 DUP3 DUP5 SUB SLT ISZERO PUSH2 0xD6C JUMPI PUSH1 0x0 DUP1 REVERT JUMPDEST PUSH2 0xD75 DUP3 PUSH2 0xD3E JUMP JUMPDEST SWAP4 SWAP3 POP POP POP JUMP JUMPDEST PUSH1 0x0 PUSH1 0x20 DUP3 DUP5 SUB SLT ISZERO PUSH2 0xD8E JUMPI PUSH1 0x0 DUP1 REVERT JUMPDEST POP CALLDATALOAD SWAP2 SWAP1 POP JUMP JUMPDEST PUSH1 0x20 DUP1 DUP3 MSTORE DUP3 MLOAD DUP3 DUP3 ADD DUP2 SWAP1 MSTORE PUSH1 0x0 SWAP2 SWAP1 DUP5 DUP3 ADD SWAP1 PUSH1 0x40 DUP6 ADD SWAP1 DUP5 JUMPDEST DUP2 DUP2 LT ISZERO PUSH2 0xDCD JUMPI DUP4 MLOAD DUP4 MSTORE SWAP3 DUP5 ADD SWAP3 SWAP2 DUP5 ADD SWAP2 PUSH1 0x1 ADD PUSH2 0xDB1 JUMP JUMPDEST POP SWAP1 SWAP7 SWAP6 POP POP POP POP POP POP JUMP JUMPDEST PUSH1 0x0 DUP1 PUSH1 0x40 DUP4 DUP6 SUB SLT ISZERO PUSH2 0xDEC JUMPI PUSH1 0x0 DUP1 REVERT JUMPDEST PUSH2 0xDF5 DUP4 PUSH2 0xD3E JUMP JUMPDEST SWAP5 PUSH1 0x20 SWAP4 SWAP1 SWAP4 ADD CALLDATALOAD SWAP4 POP POP POP JUMP JUMPDEST PUSH4 0x4E487B71 PUSH1 0xE0 SHL PUSH1 0x0 MSTORE PUSH1 0x41 PUSH1 0x4 MSTORE PUSH1 0x24 PUSH1 0x0 REVERT JUMPDEST PUSH1 0x40 MLOAD PUSH1 0x1F DUP3 ADD PUSH1 0x1F NOT AND DUP2 ADD PUSH8 0xFFFFFFFFFFFFFFFF DUP2 GT DUP3 DUP3 LT OR ISZERO PUSH2 0xE42 JUMPI PUSH2 0xE42 PUSH2 0xE03 JUMP JUMPDEST PUSH1 0x40 MSTORE SWAP2 SWAP1 POP JUMP JUMPDEST PUSH1 0x0 PUSH8 0xFFFFFFFFFFFFFFFF DUP3 GT ISZERO PUSH2 0xE64 JUMPI PUSH2 0xE64 PUSH2 0xE03 JUMP JUMPDEST POP PUSH1 0x5 SHL PUSH1 0x20 ADD SWAP1 JUMP JUMPDEST PUSH1 0x0 PUSH1 0x20 DUP1 DUP4 DUP6 SUB SLT ISZERO PUSH2 0xE81 JUMPI PUSH1 0x0 DUP1 REVERT JUMPDEST DUP3 CALLDATALOAD PUSH8 0xFFFFFFFFFFFFFFFF DUP2 GT ISZERO PUSH2 0xE98 JUMPI PUSH1 0x0 DUP1 REVERT JUMPDEST DUP4 ADD PUSH1 0x1F DUP2 ADD DUP6 SGT PUSH2 0xEA9 JUMPI PUSH1 0x0 DUP1 REVERT JUMPDEST DUP1 CALLDATALOAD PUSH2 0xEBC PUSH2 0xEB7 DUP3 PUSH2 0xE4A JUMP JUMPDEST PUSH2 0xE19 JUMP JUMPDEST DUP2 DUP2 MSTORE PUSH1 0x5 SWAP2 SWAP1 SWAP2 SHL DUP3 ADD DUP4 ADD SWAP1 DUP4 DUP2 ADD SWAP1 DUP8 DUP4 GT ISZERO PUSH2 0xEDB JUMPI PUSH1 0x0 DUP1 REVERT JUMPDEST SWAP3 DUP5 ADD SWAP3 JUMPDEST DUP3 DUP5 LT ISZERO PUSH2 0xF00 JUMPI PUSH2 0xEF1 DUP5 PUSH2 0xD3E JUMP JUMPDEST DUP3 MSTORE SWAP3 DUP5 ADD SWAP3 SWAP1 DUP5 ADD SWAP1 PUSH2 0xEE0 JUMP JUMPDEST SWAP8 SWAP7 POP POP POP POP POP POP POP JUMP JUMPDEST PUSH4 0x4E487B71 PUSH1 0xE0 SHL PUSH1 0x0 MSTORE PUSH1 0x11 PUSH1 0x4 MSTORE PUSH1 0x24 PUSH1 0x0 REVERT JUMPDEST DUP1 DUP3 ADD DUP1 DUP3 GT ISZERO PUSH2 0xF34 JUMPI PUSH2 0xF34 PUSH2 0xF0B JUMP JUMPDEST SWAP3 SWAP2 POP POP JUMP JUMPDEST PUSH1 0x0 PUSH1 0x20 DUP1 DUP4 DUP6 SUB SLT ISZERO PUSH2 0xF4D JUMPI PUSH1 0x0 DUP1 REVERT JUMPDEST DUP3 MLOAD PUSH8 0xFFFFFFFFFFFFFFFF DUP2 GT ISZERO PUSH2 0xF64 JUMPI PUSH1 0x0 DUP1 REVERT JUMPDEST DUP4 ADD PUSH1 0x1F DUP2 ADD DUP6 SGT PUSH2 0xF75 JUMPI PUSH1 0x0 DUP1 REVERT JUMPDEST DUP1 MLOAD PUSH2 0xF83 PUSH2 0xEB7 DUP3 PUSH2 0xE4A JUMP JUMPDEST DUP2 DUP2 MSTORE PUSH1 0x5 SWAP2 SWAP1 SWAP2 SHL DUP3 ADD DUP4 ADD SWAP1 DUP4 DUP2 ADD SWAP1 DUP8 DUP4 GT ISZERO PUSH2 0xFA2 JUMPI PUSH1 0x0 DUP1 REVERT JUMPDEST SWAP3 DUP5 ADD SWAP3 JUMPDEST DUP3 DUP5 LT ISZERO PUSH2 0xF00 JUMPI DUP4 MLOAD DUP3 MSTORE SWAP3 DUP5 ADD SWAP3 SWAP1 DUP5 ADD SWAP1 PUSH2 0xFA7 JUMP JUMPDEST DUP2 DUP2 SUB DUP2 DUP2 GT ISZERO PUSH2 0xF34 JUMPI PUSH2 0xF34 PUSH2 0xF0B JUMP JUMPDEST PUSH4 0x4E487B71 PUSH1 0xE0 SHL PUSH1 0x0 MSTORE PUSH1 0x32 PUSH1 0x4 MSTORE PUSH1 0x24 PUSH1 0x0 REVERT JUMPDEST PUSH1 0x0 PUSH1 0x20 DUP3 DUP5 SUB SLT ISZERO PUSH2 0xFFB JUMPI PUSH1 0x0 DUP1 REVERT JUMPDEST POP MLOAD SWAP2 SWAP1 POP JUMP JUMPDEST PUSH1 0x0 PUSH1 0x20 DUP3 DUP5 SUB SLT ISZERO PUSH2 0x1014 JUMPI PUSH1 0x0 DUP1 REVERT JUMPDEST DUP2 MLOAD DUP1 ISZERO ISZERO DUP2 EQ PUSH2 0xD75 JUMPI PUSH1 0x0 DUP1 REVERT JUMPDEST PUSH1 0x0 DUP3 PUSH2 0x1041 JUMPI PUSH4 0x4E487B71 PUSH1 0xE0 SHL PUSH1 0x0 MSTORE PUSH1 0x12 PUSH1 0x4 MSTORE PUSH1 0x24 PUSH1 0x0 REVERT JUMPDEST POP DIV SWAP1 JUMP JUMPDEST DUP1 DUP3 MUL DUP2 ISZERO DUP3 DUP3 DIV DUP5 EQ OR PUSH2 0xF34 JUMPI PUSH2 0xF34 PUSH2 0xF0B JUMP JUMPDEST PUSH1 0x0 PUSH1 0x1 DUP3 ADD PUSH2 0x106F JUMPI PUSH2 0x106F PUSH2 0xF0B JUMP JUMPDEST POP PUSH1 0x1 ADD SWAP1 JUMP INVALID LOG2 PUSH5 0x6970667358 0x22 SLT KECCAK256 CALLDATALOAD DUP2 SGT DUP9 SWAP11 0x27 GT SHL SWAP8 DUP5 0xEA 0xCC 0xBB PUSH15 0xD005F0CC553C7F10AB357419CC0853 CODESIZE 0x2C DUP1 PUSH5 0x736F6C6343 STOP ADDMOD GT STOP CALLER "
				},
				"gasEstimates": {
					"creation": {
						"codeDepositCost": "853600",
						"executionCost": "73580",
						"totalCost": "927180"
					},
					"external": {
						"balances(address)": "2579",
						"deposit()": "infinite",
						"getBlockNumber(address)": "infinite",
						"getWithdrawBlockNumbersDefu(address)": "infinite",
						"harvestBary()": "infinite",
						"harvestDefu()": "infinite",
						"pendingUnstake(address)": "2597",
						"pendingUnstakeBlock(address,uint256)": "4777",
						"reStake(address[])": "infinite",
						"rewards(address)": "2532",
						"totalBalance()": "2329",
						"unstakeBary(uint256)": "infinite",
						"unstakeDefu(uint256)": "infinite",
						"withdraw()": "infinite",
						"withdrawPending(uint256)": "infinite",
						"withdrawRewardDefu()": "infinite",
						"withdrawUnstakedAmountDefu(uint256)": "infinite"
					}
				},
				"methodIdentifiers": {
					"balances(address)": "27e235e3",
					"deposit()": "d0e30db0",
					"getBlockNumber(address)": "2de9269e",
					"getWithdrawBlockNumbersDefu(address)": "6139f158",
					"harvestBary()": "f81e4685",
					"harvestDefu()": "4321b1c0",
					"pendingUnstake(address)": "56d6ea4f",
					"pendingUnstakeBlock(address,uint256)": "d2e3663e",
					"reStake(address[])": "ea77278c",
					"rewards(address)": "0700037d",
					"totalBalance()": "ad7a672f",
					"unstakeBary(uint256)": "ba46a6e2",
					"unstakeDefu(uint256)": "23b3b9e0",
					"withdraw()": "3ccfd60b",
					"withdrawPending(uint256)": "2e585fd8",
					"withdrawRewardDefu()": "bff28a23",
					"withdrawUnstakedAmountDefu(uint256)": "fbcda19a"
				}
			},
			"storageLayout": {
				"storage": [
					{
						"astId": 112,
						"contract": "StakeMaster/stake.sol:StakeMaster",
						"label": "balances",
						"offset": 0,
						"slot": "0",
						"type": "t_mapping(t_address,t_uint256)"
					},
					{
						"astId": 116,
						"contract": "StakeMaster/stake.sol:StakeMaster",
						"label": "pendingUnstake",
						"offset": 0,
						"slot": "1",
						"type": "t_mapping(t_address,t_uint256)"
					},
					{
						"astId": 121,
						"contract": "StakeMaster/stake.sol:StakeMaster",
						"label": "pendingUnstakeBlock",
						"offset": 0,
						"slot": "2",
						"type": "t_mapping(t_address,t_array(t_uint256)dyn_storage)"
					},
					{
						"astId": 125,
						"contract": "StakeMaster/stake.sol:StakeMaster",
						"label": "rewards",
						"offset": 0,
						"slot": "3",
						"type": "t_mapping(t_address,t_uint256)"
					},
					{
						"astId": 127,
						"contract": "StakeMaster/stake.sol:StakeMaster",
						"label": "totalBalance",
						"offset": 0,
						"slot": "4",
						"type": "t_uint256"
					},
					{
						"astId": 130,
						"contract": "StakeMaster/stake.sol:StakeMaster",
						"label": "addressSvic",
						"offset": 0,
						"slot": "5",
						"type": "t_address"
					},
					{
						"astId": 133,
						"contract": "StakeMaster/stake.sol:StakeMaster",
						"label": "contractBary",
						"offset": 0,
						"slot": "6",
						"type": "t_address"
					},
					{
						"astId": 136,
						"contract": "StakeMaster/stake.sol:StakeMaster",
						"label": "contractDefution",
						"offset": 0,
						"slot": "7",
						"type": "t_address"
					}
				],
				"types": {
					"t_address": {
						"encoding": "inplace",
						"label": "address",
						"numberOfBytes": "20"
					},
					"t_array(t_uint256)dyn_storage": {
						"base": "t_uint256",
						"encoding": "dynamic_array",
						"label": "uint256[]",
						"numberOfBytes": "32"
					},
					"t_mapping(t_address,t_array(t_uint256)dyn_storage)": {
						"encoding": "mapping",
						"key": "t_address",
						"label": "mapping(address => uint256[])",
						"numberOfBytes": "32",
						"value": "t_array(t_uint256)dyn_storage"
					},
					"t_mapping(t_address,t_uint256)": {
						"encoding": "mapping",
						"key": "t_address",
						"label": "mapping(address => uint256)",
						"numberOfBytes": "32",
						"value": "t_uint256"
					},
					"t_uint256": {
						"encoding": "inplace",
						"label": "uint256",
						"numberOfBytes": "32"
					}
				}
			},
			"userdoc": {
				"kind": "user",
				"methods": {},
				"version": 1
			}
		}
	}
}